:100000000C942A000C9447000C9447000C94470071
:100010000C9447000C9447000C9447000C94EF1C80
:100020000C9447000C9447000C9447000C94470034
:100030000C9447000C9447000C9447000C94470024
:100040000C9447000C9447000C9447000C94470014
:100050000C94470011241FBECFE5D8E0DEBFCDBF12
:1000600014E0A0E6B0E0E0E8F8E602C005900D92EA
:10007000AC35B107D9F714E0ACE5B4E001C01D928E
:10008000A03DB107E1F70E94582F0C943E340C9428
:100090000000EF92FF920F931F937B018C0120E0F1
:1000A00030E040E05FE40E94F50388238CF0C80153
:1000B000B70120E030E040E05FE40E94C1010E940F
:1000C00055049B01AC01205030404040504806C0D0
:1000D000C801B7010E9455049B01AC01B901CA01D6
:1000E0001F910F91FF90EF900895A0E0B0E0EBE733
:1000F000F0E00C940233DC012B01FA019C91923068
:1001000008F439C1EB018881823008F433C194309E
:1001100069F4843009F02FC111969C91119789815F
:10012000981709F428C1AAE1B3E025C1843009F485
:1001300021C18230A9F4923009F01DC19A01AD01AC
:1001400088E0EA010990AE01E90109929E0181501F
:10015000C1F7E201898111969C918923818308C1AD
:10016000923009F407C112962D903C901397EB0141
:100170008A819B811496AD90BD90CD90DC901797AD
:10018000EC80FD800E811F819101281B390BB90184
:1001900037FF04C066277727621B730B6032710537
:1001A0000CF061C0121613066CF537014801062EDB
:1001B00004C096948794779467940A94D2F721E0C8
:1001C00030E040E050E004C0220F331F441F551FB1
:1001D0006A95D2F721503040404050402E213F21B7
:1001E00040235123211531054105510521F021E01E
:1001F00030E040E050E079018A01E628F72808293C
:1002000019293CC0232BD1F1260E371E350146019A
:10021000062E04C096948794779467940A94D2F734
:1002200021E030E040E050E004C0220F331F441FC3
:10023000551F6A95D2F721503040404050402A2146
:100240003B214C215D21211531054105510521F04E
:1002500021E030E040E050E059016A01A628B728CB
:10026000C828D9280BC0821593052CF01C01AA249C
:10027000BB24650103C0EE24FF24870111969C91E5
:10028000D20111968C91981709F445C0992339F041
:10029000A80197012A193B094C095D0906C0A6016E
:1002A00095012E193F09400B510B57FD08C01182D3
:1002B0003382228224833583468357831DC081E0A5
:1002C00081833382228288279927DC01821B930B4A
:1002D000A40BB50B84839583A683B7830DC0220F2F
:1002E000331F441F551F24833583468357838281E0
:1002F000938101979383828324813581468157813D
:10030000DA01C9010197A109B1098F5F9F4FAF4F72
:10031000BF4328F30BC0918333822282EA0CFB1C7B
:100320000C1D1D1DE482F5820683178383E0808304
:10033000248135814681578157FF1AC0C901AA27F8
:1003400097FDA095BA2F81709070A070B0705695EF
:10035000479537952795822B932BA42BB52B848318
:100360009583A683B7838281938101969383828349
:10037000DF0101C0D201CD01CDB7DEB7E2E10C94BF
:100380001E33A0E2B0E0E7ECF1E00C940E33698399
:100390007A838B839C832D833E834F835887E9E048
:1003A000EE2EF12CEC0EFD1ECE010196B7010E943F
:1003B00046068E010F5E1F4FCE010596B8010E94C2
:1003C00046068A8991E089278A8BC701B801AE0168
:1003D000475E5F4F0E9475000E947105A096E6E09F
:1003E0000C942A33A0E2B0E0E8EFF1E00C940E3375
:1003F00069837A838B839C832D833E834F835887C5
:10040000F9E0EF2EF12CEC0EFD1ECE010196B701A6
:100410000E9446068E010F5E1F4FCE010596B80161
:100420000E944606C701B801AE01475E5F4F0E94B9
:1004300075000E947105A096E6E00C942A33A0E2B4
:10044000B0E0E5E2F2E00C94023369837A838B83B7
:100450009C832D833E834F835887CE010196BE0136
:10046000675F7F4F0E944606CE010596BE016F5E14
:100470007F4F0E9446069985923088F089898230A4
:10048000C8F0943019F4823051F404C0843029F457
:10049000923081F48AE193E0C6C0923049F420E0C2
:1004A0009A858A89981321E02A87CE010996BBC0D4
:1004B000823049F420E09A858A89981321E02A8BBA
:1004C000CE014196B0C02D843E844F8458886D88FB
:1004D0007E888F88988CEE24FF248701AA24BB2471
:1004E000650140E050E060E070E0E0E0F0E0C10174
:1004F00081709070892BE9F0E60CF71C081D191D1E
:100500009A01AB012A0D3B1D4C1D5D1D80E090E062
:10051000A0E0B0E0E614F7040805190520F481E036
:1005200090E0A0E0B0E0BA01A901480F591F6A1F8E
:100530007B1FAA0CBB1CCC1CDD1C97FE08C081E0F5
:1005400090E0A0E0B0E0A82AB92ACA2ADB2A3196B6
:10055000E032F10549F0660C771C881C991C569412
:10056000479437942794C3CFFA85EA892B893C892D
:100570008B859C85280F391F2E5F3F4F17C0CA01FE
:1005800081709070892B61F016950795F794E79428
:1005900080E090E0A0E0B0E8E82AF92A0A2B1B2BC3
:1005A00076956795579547952F5F3F4F77FDE7CF36
:1005B0000CC0440F551F661F771F17FD4160EE0CDE
:1005C000FF1C001F111F21503040403090E05907A0
:1005D00090E0690790E4790760F32B8F3C8FDB0193
:1005E000CA018F779070A070B07080349105A1051A
:1005F000B10561F447FD0AC0E114F10401051105DC
:1006000029F0405C5F4F6F4F7F4F40781A8EFE1786
:1006100011F081E08A8F4D8F5E8F6F8F78A383E01A
:10062000898FCE0149960E947105A096E2E10C9453
:100630001E33A8E1B0E0EFE1F3E00C940A336983E4
:100640007A838B839C832D833E834F835887B9E0C5
:10065000EB2EF12CEC0EFD1ECE010196B7010E948F
:1006600046068E010F5E1F4FCE010596B8010E940F
:1006700046062985223008F47EC03989323010F4CC
:10068000B8017CC08A859A8989278A87243011F02D
:10069000223031F4231709F06EC06AE173E06EC0B6
:1006A000343039F41D861E861F86188A1C861B86E8
:1006B00004C0323021F484E08987B7015FC02B8504
:1006C0003C858B899C89281B390B3C872B87ED84C3
:1006D000FE840F851889AD88BE88CF88D88CEA142F
:1006E000FB040C051D0540F4EE0CFF1C001F111F40
:1006F000215030403C872B8720E030E040E050E044
:1007000080E090E0A0E0B0E460E070E0EA14FB0478
:100710000C051D0540F0282B392B4A2B5B2BEA18C2
:10072000FB080C091D09B695A79597958795EE0CC2
:10073000FF1C001F111F6F5F7F4F6F31710531F775
:10074000DA01C9018F779070A070B0708034910584
:10075000A105B10561F427FD0AC0E114F10401050A
:10076000110529F0205C3F4F4F4F5F4F20782D87B8
:100770003E874F87588BBE01675F7F4FCB010E943A
:1007800071056896EAE00C942633A8E1B0E0EBEC42
:10079000F3E00C940E3369837A838B839C832D83DF
:1007A0003E834F83588789E0E82EF12CEC0EFD1E26
:1007B000CE010196B7010E9446068E010F5E1F4FC3
:1007C000CE010596B8010E9446068985823040F028
:1007D0008989823028F0C701B8010E94BE0601C095
:1007E0008FEF6896E6E00C942A33A8E1B0E0EBEFD7
:1007F000F3E00C940E3369837A838B839C832D837F
:100800003E834F83588789E0E82EF12CEC0EFD1EC5
:10081000CE010196B7010E9446068E010F5E1F4F62
:10082000CE010596B8010E9446068985823040F0C7
:100830008989823028F0C701B8010E94BE0601C034
:100840008FEF6896E6E00C942A33A8E1B0E0EBE283
:10085000F4E00C940E3369837A838B839C832D831D
:100860003E834F83588789E0E82EF12CEC0EFD1E65
:10087000CE010196B7010E9446068E010F5E1F4F02
:10088000CE010596B8010E9446068985823040F067
:100890008989823028F0C701B8010E94BE0601C0D4
:1008A00081E06896E6E00C942A33ACE0B0E0EBE53A
:1008B000F4E00C94123369837A838B839C83CE019A
:1008C0000196BE016B5F7F4F0E9446068D8182308C
:1008D00061F1823050F1843021F48E81882351F10E
:1008E0002EC02F81388537FD20C06E812F31310514
:1008F0001CF06623F9F023C08EE190E0821B930B7D
:1009000029853A854B855C8504C056954795379572
:1009100027958A95D2F76623B1F05095409530958A
:1009200021953F4F4F4F5F4F0EC020E030E040E039
:1009300050E009C02FEF3FEF4FEF5FE704C020E02A
:1009400030E040E050E8B901CA012C96E2E00C9496
:100950002E33A8E0B0E0EFEAF4E00C940A337B0118
:100960008C01611571058105910519F482E0898377
:1009700060C083E089838EE1C82ED12CDC82CB82DB
:10098000ED82FE820F831887C801B7010E942205FD
:10099000FC013197F7FF3BC0222733272E1B3F0B6B
:1009A00057016801022E04C0D694C794B794A79447
:1009B0000A94D2F740E050E060E070E081E090E01F
:1009C000A0E0B0E004C0880F991FAA1FBB1F2A95A2
:1009D000D2F70197A109B1098E219F21A023B1234C
:1009E0000097A105B10521F041E050E060E070E022
:1009F0004A295B296C297D294D835E836F83788723
:100A00008EE190E08E1B9F0B9C838B8312C03097EE
:100A100081F00E2E04C0EE0CFF1C001F111F0A9463
:100A2000D2F7ED82FE820F831887CE1ADF0ADC82AE
:100A3000CB821A82CE0101960E9471052896EAE0C7
:100A40000C942633EF92FF920F931F937B018C013E
:100A500080E0E81680E0F80681E0080780E01807EB
:100A600088F48FEFE816F1040105110531F028F044
:100A700088E090E0A0E0B0E017C080E090E0A0E067
:100A8000B0E012C080E0E81680E0F80680E00807D9
:100A900081E0180728F088E190E0A0E0B0E004C011
:100AA00080E190E0A0E0B0E020E230E040E050E003
:100AB000281B390B4A0B5B0B04C016950795F7945E
:100AC000E7948A95D2F7F701EE5DFC4F8081281BF1
:100AD000310941095109C9011F910F91FF90EF9010
:100AE0000895DF92EF92FF920F931F93FC01E48031
:100AF000F58006811781D1808081823048F480E0C2
:100B000090E0A0E1B0E0E82AF92A0A2B1B2BA5C04F
:100B1000843009F49FC0823021F4EE24FF24870141
:100B200005C0E114F1040105110519F4E0E0F0E05D
:100B300096C0628173819FEF623879070CF05BC0C9
:100B400022E83FEF261B370B2A3131052CF020E03D
:100B500030E040E050E02AC0B801A701022E04C0F6
:100B600076956795579547950A94D2F781E090E07E
:100B7000A0E0B0E004C0880F991FAA1FBB1F2A95F0
:100B8000D2F70197A109B1098E219F21A023B1239A
:100B90000097A105B10521F081E090E0A0E0B0E070
:100BA0009A01AB01282B392B4A2B5B2BDA01C901A7
:100BB0008F779070A070B07080349105A105B10559
:100BC00039F427FF09C0205C3F4F4F4F5F4F04C0EF
:100BD000215C3F4F4F4F5F4FE0E0F0E02030A0E05E
:100BE0003A07A0E04A07A0E45A0710F0E1E0F0E07D
:100BF00079018A0127C06038710564F5FB01E1586D
:100C0000FF4FD801C7018F779070A070B07080340B
:100C10009105A105B10539F4E7FE0DC080E490E02F
:100C2000A0E0B0E004C08FE390E0A0E0B0E0E80E08
:100C3000F91E0A1F1B1F17FF05C016950795F7948D
:100C4000E794319687E016950795F794E7948A958F
:100C5000D1F705C0EE24FF248701EFEFF0E06E2FFF
:100C6000679566276795902F9F77D794DD24D79453
:100C70008E2F8695492F462B582F5D29B701CA0123
:100C80001F910F91FF90EF90DF900895FC01DB0121
:100C9000408151812281622F6F7770E0221F2227CD
:100CA000221F9381892F880F822B282F30E0991FD4
:100CB0009927991F11969C93119721153105A9F534
:100CC000411551056105710511F482E037C082E8D4
:100CD0009FEF13969C938E9312979A01AB0167E056
:100CE000220F331F441F551F6A95D1F783E08C9361
:100CF0000DC0220F331F441F551F12968D919C91DA
:100D00001397019713969C938E931297203080E04F
:100D1000380780E0480780E4580758F314962D936D
:100D20003D934D935C93179708952F3F310579F4C8
:100D3000411551056105710519F484E08C930895FE
:100D400064FF03C081E08C9312C01C9210C02F5727
:100D5000304013963C932E93129783E08C9387E058
:100D6000440F551F661F771F8A95D1F7706414963C
:100D70004D935D936D937C93179708951F93DC01BA
:100D8000FB019C91923008F447C08081823008F4C6
:100D900043C0943051F411961C91843099F58181AF
:100DA000682F70E0611B71093FC0843021F09230E0
:100DB00031F48230B9F18181882389F12DC01196F7
:100DC0001C9111978230F1F081811817D9F4129695
:100DD0002D913C911397828193818217930794F010
:100DE00028173907BCF014968D919D910D90BC91F8
:100DF000A02D2481358146815781281739074A075C
:100E00005B0718F4112341F00AC082179307A40767
:100E1000B50740F4112319F061E070E005C06FEFF1
:100E20007FEF02C060E070E0CB011F910895DF9377
:100E3000CF9300D000D0CDB7DEB789836A83898194
:100E4000282F30E03C832B838B819C81813091055E
:100E500009F12B813C81223031052CF48B819C815E
:100E6000009761F03AC02B813C8122303105F1F0CE
:100E70008B819C818330910529F12FC08A81882341
:100E800021F4EAE3F0E0108228C0EAE3F0E08FEF1B
:100E9000808323C08A81882321F4E7E3F0E0108275
:100EA0001CC0E7E3F0E08FEF808317C08A818823BE
:100EB00021F4E4E3F0E0108210C0E4E3F0E08FEF0F
:100EC00080830BC08A81882321F4E1E3F0E0108263
:100ED00004C0E1E3F0E08FEF80830F900F900F905C
:100EE0000F90CF91DF910895DF93CF9300D000D082
:100EF000CDB7DEB789836A838981282F30E03C83B0
:100F00002B838B819C8181309105D1F02B813C8199
:100F1000223031052CF48B819C81009761F01EC03A
:100F20002B813C812230310581F08B819C81833083
:100F3000910581F013C0EBE3F0E08A8180830EC05D
:100F4000E8E3F0E08A81808309C0E5E3F0E08A818C
:100F5000808304C0E2E3F0E08A8180830F900F90E9
:100F60000F900F90CF91DF910895DF93CF9300D032
:100F700000D00F92CDB7DEB789836A834B83898116
:100F8000282F30E03D832C838C819D818130910519
:100F900009F459C02C813D81223031052CF48C811B
:100FA0009D81009771F013C12C813D812230310564
:100FB00009F48BC08C819D818330910509F4C7C0F1
:100FC00006C18B818130A1F4AAE3B0E0EAE3F0E04E
:100FD0008081482F8A81282F30E081E090E0022E26
:100FE00002C0880F991F0A94E2F7842B8C93EFC0FC
:100FF0008B81882309F0EBC0AAE3B0E0EAE3F0E0DC
:101000008081482F8A81282F30E081E090E002C063
:10101000880F991F2A95E2F7809584238C93ABE380
:10102000B0E0EBE3F0E08081482F8A81282F30E0A8
:1010300081E090E0022E02C0880F991F0A94E2F727
:10104000842B8C93C4C08B818130A1F4A7E3B0E0E2
:10105000E7E3F0E08081482F8A81282F30E081E0AB
:1010600090E0022E02C0880F991F0A94E2F7842BA9
:101070008C93ADC08B81882309F0A9C0A7E3B0E0B1
:10108000E7E3F0E08081482F8A81282F30E081E07B
:1010900090E002C0880F991F2A95E2F7809584237B
:1010A0008C93A8E3B0E0E8E3F0E08081482F8A81E8
:1010B000282F30E081E090E0022E02C0880F991FB7
:1010C0000A94E2F7842B8C9382C08B818130A1F447
:1010D000A4E3B0E0E4E3F0E08081482F8A81282F88
:1010E00030E081E090E0022E02C0880F991F0A9440
:1010F000E2F7842B8C936BC08B81882309F067C047
:10110000A4E3B0E0E4E3F0E08081482F8A81282F57
:1011100030E081E090E002C0880F991F2A95E2F745
:10112000809584238C93A5E3B0E0E5E3F0E0808133
:10113000482F8A81282F30E081E090E0022E02C003
:10114000880F991F0A94E2F7842B8C9340C08B81FF
:101150008130A1F4A1E3B0E0E1E3F0E08081482F29
:101160008A81282F30E081E090E0022E02C0880FB3
:10117000991F0A94E2F7842B8C9329C08B818823D2
:1011800031F5A1E3B0E0E1E3F0E08081482F8A810E
:10119000282F30E081E090E002C0880F991F2A9547
:1011A000E2F7809584238C93A2E3B0E0E2E3F0E0E1
:1011B0008081482F8A81282F30E081E090E0022E44
:1011C00002C0880F991F0A94E2F7842B8C930F902A
:1011D0000F900F900F900F90CF91DF910895DF93B4
:1011E000CF9300D000D0CDB7DEB789836A838981E1
:1011F000282F30E03C832B838B819C8181309105AB
:10120000D1F02B813C81223031052CF48B819C81E3
:10121000009761F01EC02B813C812230310581F0A6
:101220008B819C818330910581F013C0E9E3F0E06C
:101230008A8180830EC0E6E3F0E08A81808309C062
:10124000E3E3F0E08A81808304C0E0E3F0E08A8198
:1012500080830F900F900F900F90CF91DF910895A2
:10126000DF93CF9300D000D00F92CDB7DEB78A8343
:101270006B8319828A81282F30E03D832C834C8137
:101280005D814130510559F18C819D8182309105FC
:1012900034F42C813D812115310569F05BC04C810E
:1012A0005D814230510579F18C819D8183309105BA
:1012B00009F43DC04FC0E9E3F0E080818983898172
:1012C000282F30E08B81882F90E0A90102C055952E
:1012D00047958A95E2F7CA01817089833BC0E6E3AE
:1012E000F0E0808189838981282F30E08B81882FED
:1012F00090E0A90102C0559547958A95E2F7CA0189
:101300008170898327C0E3E3F0E08081898389814C
:10131000282F30E08B81882F90E0A90102C05595DD
:1013200047958A95E2F7CA018170898313C0E0E38B
:10133000F0E0808189838981282F30E08B81882F9C
:1013400090E0A90102C0559547958A95E2F7CA0138
:101350008170898389810F900F900F900F900F906B
:10136000CF91DF910895DF93CF9300D000D00F92FB
:10137000CDB7DEB789836A834B838981282F30E01C
:101380003D832C838C819D818130910509F447C078
:101390002C813D81223031052CF48C819D81009778
:1013A00071F0CBC02C813D812230310509F467C03A
:1013B0008C819D818330910509F491C0BEC08B81E1
:1013C0008130A1F4ABE3B0E0EBE3F0E08081482FA3
:1013D0008A81282F30E081E090E0022E02C0880F41
:1013E000991F0A94E2F7842B8C93A7C08B818823E2
:1013F00009F0A3C0ABE3B0E0EBE3F0E08081482F5D
:101400008A81282F30E081E090E0022E02C0880F10
:10141000991F0A94E2F7809584238C938EC08B8168
:101420008130A1F4A8E3B0E0E8E3F0E08081482F48
:101430008A81282F30E081E090E0022E02C0880FE0
:10144000991F0A94E2F7842B8C9377C08B818823B1
:1014500009F073C0A8E3B0E0E8E3F0E08081482F32
:101460008A81282F30E081E090E0022E02C0880FB0
:10147000991F0A94E2F7809584238C935EC08B8138
:101480008130A1F4A5E3B0E0E5E3F0E08081482FEE
:101490008A81282F30E081E090E0022E02C0880F80
:1014A000991F0A94E2F7842B8C9347C08B81882381
:1014B00009F043C0A5E3B0E0E5E3F0E08081482F08
:1014C0008A81282F30E081E090E0022E02C0880F50
:1014D000991F0A94E2F7809584238C932EC08B8108
:1014E0008130A1F4A2E3B0E0E2E3F0E08081482F94
:1014F0008A81282F30E081E090E0022E02C0880F20
:10150000991F0A94E2F7842B8C9317C08B81882350
:10151000A1F4A2E3B0E0E2E3F0E08081482F8A8109
:10152000282F30E081E090E0022E02C0880F991F42
:101530000A94E2F7809584238C930F900F900F907C
:101540000F900F90CF91DF910895DF93CF9300D04C
:1015500000D00F92CDB7DEB789836A834B83898130
:10156000282F30E03D832C838C819D818130910533
:1015700009F447C02C813D81223031052CF48C8147
:101580009D81009771F0CBC02C813D8122303105C7
:1015900009F467C08C819D818330910509F491C065
:1015A000BEC08B818130A1F4A9E3B0E0E9E3F0E0B3
:1015B0008081482F8A81282F30E081E090E0022E40
:1015C00002C0880F991F0A94E2F7842B8C93A7C05E
:1015D0008B81882309F0A3C0A9E3B0E0E9E3F0E040
:1015E0008081482F8A81282F30E081E090E0022E10
:1015F00002C0880F991F0A94E2F7809584238C9388
:101600008EC08B818130A1F4A6E3B0E0E6E3F0E088
:101610008081482F8A81282F30E081E090E0022EDF
:1016200002C0880F991F0A94E2F7842B8C9377C02D
:101630008B81882309F073C0A6E3B0E0E6E3F0E015
:101640008081482F8A81282F30E081E090E0022EAF
:1016500002C0880F991F0A94E2F7809584238C9327
:101660005EC08B818130A1F4A3E3B0E0E3E3F0E05E
:101670008081482F8A81282F30E081E090E0022E7F
:1016800002C0880F991F0A94E2F7842B8C9347C0FD
:101690008B81882309F043C0A3E3B0E0E3E3F0E0EB
:1016A0008081482F8A81282F30E081E090E0022E4F
:1016B00002C0880F991F0A94E2F7809584238C93C7
:1016C0002EC08B818130A1F4A0E3B0E0E0E3F0E034
:1016D0008081482F8A81282F30E081E090E0022E1F
:1016E00002C0880F991F0A94E2F7842B8C9317C0CD
:1016F0008B818823A1F4A0E3B0E0E0E3F0E08081F7
:10170000482F8A81282F30E081E090E0022E02C02D
:10171000880F991F0A94E2F7809584238C930F9089
:101720000F900F900F900F90CF91DF910895DF935E
:10173000CF9300D000D0CDB7DEB78A8319828A81DB
:10174000282F30E03C832B838B819C818130910555
:10175000D1F02B813C81223031052CF48B819C818E
:10176000009761F01EC02B813C812230310581F051
:101770008B819C818330910581F013C0EBE3F0E015
:10178000808189830EC0E8E3F0E08081898309C00D
:10179000E5E3F0E08081898304C0E2E3F0E080814A
:1017A000898389810F900F900F900F90CF91DF91D7
:1017B0000895DF93CF9300D000D0CDB7DEB78A83F2
:1017C00019828A81282F30E03C832B838B819C8176
:1017D00081309105D1F02B813C81223031052CF4F0
:1017E0008B819C81009761F01EC02B813C8122304F
:1017F000310581F08B819C818330910581F013C08C
:10180000E9E3F0E0808189830EC0E6E3F0E08081C7
:10181000898309C0E3E3F0E08081898304C0E0E3C9
:10182000F0E08081898389810F900F900F900F9055
:10183000CF91DF910895DF93CF9300D000D00F9226
:10184000CDB7DEB78A836B8319828A81282F30E077
:101850003D832C834C815D814130510559F18C8150
:101860009D818230910534F42C813D812115310513
:1018700069F05BC04C815D814230510579F18C810A
:101880009D818330910509F43DC04FC0EBE3F0E04A
:10189000808189838981282F30E08B81882F90E097
:1018A000A90102C0559547958A95E2F7CA01817052
:1018B00089833BC0E8E3F0E0808189838981282F18
:1018C00030E08B81882F90E0A90102C055954795A3
:1018D0008A95E2F7CA018170898327C0E5E3F0E0C9
:1018E000808189838981282F30E08B81882F90E047
:1018F000A90102C0559547958A95E2F7CA01817002
:10190000898313C0E2E3F0E0808189838981282FF5
:1019100030E08B81882F90E0A90102C05595479552
:101920008A95E2F7CA018170898389810F900F90AF
:101930000F900F900F90CF91DF910895DF93CF9389
:1019400000D00F92CDB7DEB789838981282F30E090
:101950003B832A838A819B81009731F02A813B81D6
:101960002130310549F00FC0AFE5B0E0EFE5F0E020
:1019700080818F778C9307C0AFE5B0E0EFE5F0E0B2
:10198000808180688C930F900F900F90CF91DF91A2
:101990000895DF93CF9300D00F92CDB7DEB7898340
:1019A0008981282F30E03B832A838A819B8186307E
:1019B000910559F02A813B812730310571F08A81E8
:1019C0009B818530910589F017C0ABE5B0E0EBE570
:1019D000F0E0808180648C930FC0ABE5B0E0EBE574
:1019E000F0E0808180688C9307C0ABE5B0E0EBE568
:1019F000F0E0808180628C930F900F900F90CF91D8
:101A0000DF910895DF93CF9300D00F92CDB7DEB76B
:101A100089838981282F30E03B832A838A819B81B7
:101A20008630910559F02A813B812730310571F0CC
:101A30008A819B818530910589F017C0ABE5B0E0C4
:101A4000EBE5F0E080818F7B8C930FC0ABE5B0E0DD
:101A5000EBE5F0E080818F778C9307C0ABE5B0E0D9
:101A6000EBE5F0E080818F7D8C930F900F900F90CD
:101A7000CF91DF910895DF93CF9300D00F92CDB730
:101A8000DEB789838981282F30E03B832A838A81CE
:101A90009B818230910551F12A813B8123303105B0
:101AA00054F48A819B81009789F02A813B812130FF
:101AB0003105A1F032C08A819B8183309105F1F01C
:101AC0002A813B812630310509F127C0A5E5B0E028
:101AD000E5E5F0E0808181608C931FC0A5E5B0E072
:101AE000E5E5F0E0808182608C9317C0A5E5B0E069
:101AF000E5E5F0E0808184608C930FC0A5E5B0E05F
:101B0000E5E5F0E0808188608C9307C0A4E5B0E053
:101B1000E4E5F0E0808180648C930F900F900F904B
:101B2000CF91DF910895DF93CF9300D00F92CDB77F
:101B3000DEB789838981282F30E03B832A838A811D
:101B40009B818230910551F12A813B8123303105FF
:101B500054F48A819B81009789F02A813B8121304E
:101B60003105A1F032C08A819B8183309105F1F06B
:101B70002A813B812630310509F127C0A5E5B0E077
:101B8000E5E5F0E080818E7F8C931FC0A5E5B0E095
:101B9000E5E5F0E080818D7F8C9317C0A5E5B0E08E
:101BA000E5E5F0E080818B7F8C930FC0A5E5B0E088
:101BB000E5E5F0E08081877F8C9307C0A4E5B0E085
:101BC000E4E5F0E080818F7B8C930F900F900F9075
:101BD000CF91DF910895DF93CF93CDB7DEB780E04B
:101BE00060E040E00E94B50780E061E040E00E94D4
:101BF000B50780E062E040E00E94B50780E063E066
:101C000040E00E94B50780E064E041E00E94B50733
:101C100080E065E041E00E94B50780E066E041E0D9
:101C20000E94B50780E067E041E00E94B50780E0D0
:101C300064E040E00E94B30980E065E040E00E947B
:101C4000B30980E066E040E00E94B30980E067E00D
:101C500040E00E94B3090E94300ECF91DF910895B9
:101C6000DF93CF93CDB7DEB76D970FB6F894DEBF95
:101C70000FBECDBF80E064E040E00E94B30980E089
:101C800065E040E00E94B30980E066E040E00E9429
:101C9000B30980E067E040E00E94B30980E00E9461
:101CA000D90B882F90E08F7090708F30910511F7CD
:101CB00080E090E0A0EAB1E4898F9A8FAB8FBC8F6F
:101CC000698D7A8D8B8D9C8D20E030E04AEF54E455
:101CD0000E941F02DC01CB018D8B9E8BAF8BB88FD6
:101CE0006D897E898F89988D20E030E040E85FE340
:101CF0000E94250488232CF481E090E09C8B8B8B40
:101D00003FC06D897E898F89988D20E03FEF4FE736
:101D100057E40E94C50318164CF5698D7A8D8B8D9A
:101D20009C8D20E030E040E251E40E941F02DC0183
:101D3000CB01BC01CD010E944900DC01CB019C8B91
:101D40008B8B0FC088EC90E09A8B898B89899A895C
:101D50000197F1F79A8B898B8B899C8901979C8BD2
:101D60008B8B8B899C89009769F714C06D897E895C
:101D70008F89988D0E944900DC01CB019C8B8B8B55
:101D80008B899C89988B8F878F8598890197F1F72C
:101D9000988B8F8780E00E94D90B882F90E08F70FE
:101DA00090708F30910509F483CF80E090E0A0EA35
:101DB000B1E48B879C87AD87BE876B857C858D85DD
:101DC0009E8520E030E04AEF54E40E941F02DC01CF
:101DD000CB018F839887A987BA876F81788589859A
:101DE0009A8520E030E040E85FE30E9425048823E4
:101DF0002CF481E090E09E838D833FC06F817885D5
:101E000089859A8520E03FEF4FE757E40E94C5039C
:101E100018164CF56B857C858D859E8520E030E01D
:101E200040E251E40E941F02DC01CB01BC01CD0164
:101E30000E944900DC01CB019E838D830FC088EC9A
:101E400090E09C838B838B819C810197F1F79C832D
:101E50008B838D819E8101979E838D838D819E8151
:101E6000009769F714C06F81788589859A850E94EB
:101E70004900DC01CB019E838D838D819E819A83F5
:101E8000898389819A810197F1F79A83898380E018
:101E90000E94D90B882F90E08F7090708F30910541
:101EA00009F406CF80E064E040E00E94B30980E0DE
:101EB00065E041E00E94B30980E066E041E00E94F5
:101EC000B30980E067E041E00E94B30980E00E942E
:101ED000D90B882F90E08F7090708F30910529F08A
:101EE00080915E0480935D046CC080E064E041E01A
:101EF0000E94B30980E065E040E00E94B30980E001
:101F000066E041E00E94B30980E067E041E00E94A2
:101F1000B30980E00E94D90B882F90E08F709070F9
:101F20008F30910531F080915E048F5F80935D0466
:101F300048C080E064E041E00E94B30980E065E0D1
:101F400041E00E94B30980E066E040E00E94B309EE
:101F500080E067E041E00E94B30980E00E94D90B75
:101F6000882F90E08F7090708F30910531F08091C4
:101F70005E048E5F80935D0424C080E064E041E0F5
:101F80000E94B30980E065E041E00E94B30980E06F
:101F900066E041E00E94B30980E067E040E00E9413
:101FA000B30980E00E94D90B882F90E08F70907069
:101FB0008F30910509F476CF80915E048D5F809318
:101FC0005D0480E00E94D90B882F90E08F709070A4
:101FD0008E30910571F480915D04882F90E0880F18
:101FE000991F880F991FFC01E85DFB4F808180934A
:101FF0005F0480E00E94D90B882F90E08F70907072
:102000008D30910571F480915D04882F90E0880FE8
:10201000991F880F991FFC01E75DFB4F808180931A
:102020005F0480E00E94D90B882F90E08F70907041
:102030008B30910579F480915D04882F90E0880FB2
:10204000991F0196880F991FFC01E85DFB4F808165
:1020500080935F0480E00E94D90B882F90E08F70FE
:1020600090708730910571F480915D04882F90E025
:10207000880F991F880F991FFC01E55DFB4F808138
:1020800080935F0480915E04882F90E003962CE09B
:1020900030E0B9010E94EF32880F991F880F991F15
:1020A000FC01E55DFB4F908180915F04981769F416
:1020B00080915E04882F90E004962CE030E0B90116
:1020C0000E94EF3280935E04D5CD909155048091AB
:1020D0005F04981721F481E080935C04CBCD90914C
:1020E000350480915F04981709F580917004815040
:1020F0008093700480917004882F90E0FC01EF5968
:10210000FB4F10820E94FC1A8D8F8D8D815860E0EC
:1021100040E00E94051880E690E00E94E2198D8D53
:10212000815860E040E00E940518A4CD80915E04D3
:10213000882F90E003962CE030E0B9010E94EF3246
:10214000880F991F0196880F991FFC01E85DFB4FCE
:10215000908180915F049817F9F481E060E10E941A
:10216000101B8091AA048823A1F48091AD048823D8
:1021700069F01092AD0480915F046D960FB6F894EB
:10218000DEBF0FBECDBFCF91DF9108950E94D71063
:1021900071CD0E94FA116ECD80915F040E94BB1335
:1021A00080915F0460E041E00E94051863CDDF93F9
:1021B000CF93CDB7DEB761970FB6F894DEBF0FBEF1
:1021C000CDBF809161048F871092700481E080936D
:1021D000C1048F85282F30E0398B288B8889998915
:1021E0008433910509F44BC0288939892533310599
:1021F00084F4888999898233910549F1288939893C
:102200002333310584F5888999898133910599F0C3
:102210005EC0288939892633310509F444C088898C
:10222000998986339105BCF128893989273331058D
:1022300009F441C04CC082E690E00E94E21981E3BB
:102240000E94A41481E062E00E940E1ACAC088E6CF
:1022500090E00E94E21982E30E94A41481E062E00F
:102260000E940E1ABEC088E690E00E94E21983E345
:102270000E94A41481E062E00E940E1AB2C088E6B7
:1022800090E00E94E21984E30E94A41481E062E0DD
:102290000E940E1AA6C08CE690E00E94E21985E327
:1022A0000E94A4149EC08DE790E00E94E21986E38C
:1022B0000E94A41496C080E990E00E94E21987E38E
:1022C0000E94A41481E062E00E940E1A8AC081E09C
:1022D0008093C10481E060E20E94101B8BE990E0D2
:1022E0000E94E21980E090E8ABEBB4E48B879C8716
:1022F000AD87BE876B857C858D859E8520E030E02F
:102300004AEF54E40E941F02DC01CB018F839887BF
:10231000A987BA876F81788589859A8520E030E022
:1023200040E85FE30E94250488232CF481E090E0DC
:102330009E838D833FC06F81788589859A8520E053
:102340003FEF4FE757E40E94C50318164CF56B8525
:102350007C858D859E8520E030E040E251E40E943E
:102360001F02DC01CB01BC01CD010E944900DC0150
:10237000CB019E838D830FC088EC90E09C838B8380
:102380008B819C810197F1F79C838B838D819E814A
:1023900001979E838D838D819E81009769F714C07C
:1023A0006F81788589859A850E944900DC01CB017F
:1023B0009E838D838D819E819A83898389819A8171
:1023C0000197F1F79A83898388E30E94A41481E03E
:1023D00060E20E94101B1092C10481E061E00E9443
:1023E0000E1A61960FB6F894DEBF0FBECDBFCF9127
:1023F000DF910895DF93CF9300D0CDB7DEB7809102
:10240000AC04282F30E03A83298389819A81843370
:10241000910509F41FC129813A812533310594F4CE
:1024200089819A818233910509F484C029813A8196
:10243000233331050CF0C6C089819A81813391051F
:10244000A1F08EC129813A812633310509F453C1A7
:1024500089819A81863391050CF444C129813A819E
:102460002733310509F450C17BC18091A80488232A
:10247000A1F484E894E00E94451481E08093A804CC
:102480008AEA90E00E94E21981E160E20E94101B5A
:1024900081E062E00E940E1A48C08091A704882360
:1024A000A1F488E994E00E94451481E08093A70498
:1024B0008FEA90E00E94E21981E160E20E94101B25
:1024C00081E062E00E940E1A30C08091A904882346
:1024D000A1F40E94DB138093760481E08093A90429
:1024E00087EB90E00E94E21981E160E20E94101BFC
:1024F00081E062E00E940E1A18C02091760488E9FB
:1025000094E044E854E0BA01422F0E94551D109215
:10251000C1041092A8041092A9041092A70481E1AA
:1025200060E20E94101B0E947B14109270040E94B3
:102530008B141CC18091A5048823A1F481E794E049
:102540000E94451481E08093A50482E690E00E94F9
:10255000E21981E160E20E94101B81E062E00E94CA
:102560000E1A2BC08091A8048823A1F484E894E07B
:102570000E94451481E08093A80487EB90E00E94BC
:10258000E21981E160E20E94101B81E062E00E949A
:102590000E1A13C081E794E024E834E0B9010E94E8
:1025A00077241092C1041092A5041092A80481E12E
:1025B00060E20E94101B0E947B14109270040E9423
:1025C0008B14D4C08091A5048823A1F481E794E002
:1025D0000E94451481E08093A5048AEA90E00E945D
:1025E000E21981E160E20E94101B81E062E00E943A
:1025F0000E1A2BC08091A7048823A1F488E994E0E7
:102600000E94451481E08093A70487EB90E00E942C
:10261000E21981E160E20E94101B81E062E00E9409
:102620000E1A13C081E794E028E934E0B9010E9452
:102630009F271092C1041092A5041092A70481E173
:1026400060E20E94101B0E947B14109270040E9492
:102650008B148CC08091A5048823A1F481E794E0B9
:102660000E94451481E08093A5048AEA90E00E94CC
:10267000E21981E160E20E94101B81E062E00E94A9
:102680000E1A2BC08091A7048823A1F488E994E056
:102690000E94451481E08093A70487EB90E00E949C
:1026A000E21981E160E20E94101B81E062E00E9479
:1026B0000E1A13C081E794E028E934E0B9010E94C2
:1026C0007D2C1092A5041092A70481E160E20E9483
:1026D000101B0E947B141092C104109270040E947F
:1026E0008B1444C00E948C21109270040E947B14B1
:1026F0001092C1043BC00E94032A109270040E94F1
:102700007B141092C10432C08091A5048823A1F4E7
:1027100081E794E00E94451481E08093A50487EB53
:1027200090E00E94E21981E160E20E94101B81E0CA
:1027300062E00E940E1A0FC081E794E061E00E94FF
:1027400042261092A50481E160E20E94101B0E94C3
:102750007B141092C104109270040E948B1406C066
:102760000E947B140E948B14109270040F900F90A3
:10277000CF91DF910895DF93CF930F92CDB7DEB75E
:10278000898380917004882F90E0FC01EF59FB4F02
:1027900089818083809170048F5F80937004809121
:1027A0007004882F90E0FC01EF59FB4F10820F90CE
:1027B000CF91DF910895DF93CF9300D000D0CDB7B4
:1027C000DEB71C8281E08B831A82198218C08C814B
:1027D000882321F48C818F5F8C8311C08C818F5F63
:1027E0008C838B81882F90E09C01220F331FC901BD
:1027F000880F991F880F991F820F931F8B838C81DD
:10280000882F90E0FC01EF59FB4F80818823F9F677
:102810001C8229C08C81882F90E0FC01EF59FB4F6E
:10282000808190E3692F0E94CF32892F282F30E0DA
:102830008B81882F90E0AC01249FC001259F900DD3
:10284000349F900D11249C0189819A81820F931FDE
:102850009A8389838B819AE0692F0E94CF328B8380
:102860008C8181508C838C81882F90E0FC01EF5902
:10287000FB4F8081882371F689819A810F900F9098
:102880000F900F90CF91DF910895DF93CF9300D0F9
:102890000F92CDB7DEB79B838A831982198213C04A
:1028A0008981282F30E08A819B81DC01A20FB31F30
:1028B0008981882F90E0FC01EF59FB4F80818C9338
:1028C00089818F5F89838981882F90E0FC01EF598E
:1028D000FB4F8081882321F78981282F30E08A816E
:1028E0009B81FC01E20FF31F10820F900F900F905D
:1028F000CF91DF910895DF93CF93CDB7DEB71092DC
:10290000AC041092AA040E948B1481E08093AD0461
:10291000CF91DF910895DF93CF930F92CDB7DEB7BC
:1029200019820BC08981882F90E0FC01EF59FB4F81
:1029300080E3808389818F5F898389818F3090F3E1
:102940000F90CF91DF910895DF93CF930F92CDB782
:10295000DEB7898381E160E20E94101B8981809348
:10296000AC0481E08093AA040F90CF91DF91089589
:102970000F931F93DF93CF93CDB7DEB7C655D040EB
:102980000FB6F894DEBF0FBECDBF82E061E00E94BB
:10299000170783E061E00E94170783E060E040E0F2
:1029A0000E94B30983E061E040E00E94B30988E33C
:1029B00060E040E00E940518FE01ED5AFF4F80E004
:1029C00090E0A0E3B1E480839183A283B3838E017E
:1029D000015B1F4FFE01ED5AFF4F608171818281C3
:1029E00093812BEA3AEA4AE250E40E941F02DC019A
:1029F000CB01F80180839183A283B383FE01E15B65
:102A0000FF4F608171818281938120E030E040E856
:102A10005FE30E942504882334F4FE01E25BFF4F4C
:102A200081E08083E0C0FE01E15BFF4F6081718146
:102A30008281938120E030E04FE753E40E94C50398
:102A400018160CF0C0C0FE01ED5AFF4F6081718175
:102A50008281938120E030E04AE754E40E94190328
:102A6000DC01CB01FE01E65BFF4F80839183A283F3
:102A7000B3838E010A5B1F4FFE01E65BFF4F60814F
:102A800071818281938120E030E04AEF54E40E941A
:102A90001F02DC01CB01F80180839183A283B38301
:102AA000FE01EA5BFF4F608171818281938120E0AA
:102AB00030E040E85FE30E942504882344F4FE01EF
:102AC000EC5BFF4F81E090E09183808364C0FE0166
:102AD000EA5BFF4F608171818281938120E03FEF4B
:102AE0004FE757E40E94C50318160CF043C0FE01DF
:102AF000E65BFF4F608171818281938120E030E04D
:102B000040E251E40E941F02DC01CB018E010C5B0C
:102B10001F4FBC01CD010E944900DC01CB01F8012F
:102B2000918380831FC0FE01EE5BFF4F88EC90E035
:102B300091838083FE01EE5BFF4F8081918101973D
:102B4000F1F7FE01EE5BFF4F91838083DE01AC5B0A
:102B5000BF4FFE01EC5BFF4F808191810197119681
:102B60009C938E93FE01EC5BFF4F808191810097D7
:102B7000D1F642C08E010C5B1F4FFE01EA5BFF4F96
:102B800060817181828193810E944900DC01CB01C7
:102B9000F80191838083DE01A05CBF4FFE01EC5BF6
:102BA000FF4F8081918111969C938E93FE01E05C92
:102BB000FF4F808191810197F1F7FE01E05CFF4FAB
:102BC0009183808319C08E01025B1F4FFE01E15B80
:102BD000FF4F60817181828193810E944900DC01F5
:102BE000CB01F8018083FE01E25BFF4F80818FAF54
:102BF0008FAD8A95F1F78FAF8CE060E040E00E94E6
:102C0000051880E090E0A0E3B1E48BAF9CAFADAFDE
:102C1000BEAF6BAD7CAD8DAD9EAD2BEA3AEA4AE21C
:102C200050E40E941F02DC01CB018FAB98AFA9AF2B
:102C3000BAAF6FA978AD89AD9AAD20E030E040E839
:102C40005FE30E94250488231CF481E08EAB91C0D1
:102C50006FA978AD89AD9AAD20E030E04FE753E43D
:102C60000E94C50318160CF07BC06BAD7CAD8DAD1A
:102C70009EAD20E030E04AE754E40E941903DC01F5
:102C8000CB018AAB9BABACABBDAB6AA97BA98CA9D2
:102C90009DA920E030E04AEF54E40E941F02DC01CD
:102CA000CB018EA79FA7A8ABB9AB6EA57FA588A9BE
:102CB00099A920E030E040E85FE30E9425048823E2
:102CC0002CF481E090E09DA78CA73FC06EA57FA566
:102CD00088A999A920E03FEF4FE757E40E94C50378
:102CE00018164CF56AA97BA98CA99DA920E030E0B3
:102CF00040E251E40E941F02DC01CB01BC01CD0186
:102D00000E944900DC01CB019DA78CA70FC088EC75
:102D100090E09BA78AA78AA59BA50197F1F79BA79F
:102D20008AA78CA59DA501979DA78CA78CA59DA57D
:102D3000009769F724C06EA57FA588A999A90E946C
:102D40004900DC01CB019DA78CA78CA59DA599A767
:102D500088A788A599A50197F1F799A788A70FC01B
:102D60006FA978AD89AD9AAD0E944900DC01CB0115
:102D70008EAB8EA98FA38FA18A95F1F78FA381E0E7
:102D800060E040E00E94051880E090E0A0E0B0E440
:102D90008BA39CA3ADA3BEA36BA17CA18DA19EA17F
:102DA00020E030E04AEF54E40E941F02DC01CB0136
:102DB0008F8F98A3A9A3BAA36F8D78A189A19AA197
:102DC00020E030E040E85FE30E94250488232CF4F3
:102DD00081E090E09E8F8D8F3FC06F8D78A189A19B
:102DE0009AA120E03FEF4FE757E40E94C503181671
:102DF0004CF56BA17CA18DA19EA120E030E040E2CA
:102E000051E40E941F02DC01CB01BC01CD010E94F4
:102E10004900DC01CB019E8F8D8F0FC088EC90E0C4
:102E20009C8F8B8F8B8D9C8D0197F1F79C8F8B8F57
:102E30008D8D9E8D01979E8F8D8F8D8D9E8D009790
:102E400069F714C06F8D78A189A19AA10E944900E9
:102E5000DC01CB019E8F8D8F8D8D9E8D9A8F898FFA
:102E6000898D9A8D0197F1F79A8F898F86E060E0BE
:102E700040E00E94051880E090E0A0E3B1E48D8B73
:102E80009E8BAF8BB88F6D897E898F89988D2BEA49
:102E90003AEA4AE250E40E941F02DC01CB01898B2E
:102EA0009A8BAB8BBC8B69897A898B899C8920E052
:102EB00030E040E85FE30E94250488231CF481E0B1
:102EC000888B91C069897A898B899C8920E030E060
:102ED0004FE753E40E94C50318160CF07BC06D89C0
:102EE0007E898F89988D20E030E04AE754E40E9483
:102EF0001903DC01CB018C879D87AE87BF876C856A
:102F00007D858E859F8520E030E04AEF54E40E9465
:102F10001F02DC01CB0188879987AA87BB87688558
:102F200079858A859B8520E030E040E85FE30E9458
:102F3000250488232CF481E090E09F838E833FC09A
:102F4000688579858A859B8520E03FEF4FE757E4C8
:102F50000E94C50318164CF56C857D858E859F856E
:102F600020E030E040E251E40E941F02DC01CB018E
:102F7000BC01CD010E944900DC01CB019F838E83FF
:102F80000FC088EC90E09D838C838C819D8101979C
:102F9000F1F79D838C838E819F8101979F838E8320
:102FA0008E819F81009769F724C0688579858A851D
:102FB0009B850E944900DC01CB019F838E838E811B
:102FC0009F819B838A838A819B810197F1F79B83F1
:102FD0008A830FC069897A898B899C890E944900FC
:102FE000DC01CB01888B8889898389818A95F1F7F7
:102FF0008983CA5ADF4F0FB6F894DEBF0FBECDBF2C
:10300000CF91DF911F910F910895DF93CF93CDB7AB
:10301000DEB7E3970FB6F894DEBF0FBECDBF89AB26
:103020006AAB4BAB8BA9882331F483E060E040E0CE
:103030000E94B30905C083E060E041E00E94B3094B
:103040008AA9882351F483E061E040E00E94B3093B
:1030500082E069A90E94740709C083E061E041E051
:103060000E94B30982E060E00E94170783E062E0FB
:1030700041E00E94B30980E090E0A0E2B1E48DA7B6
:103080009EA7AFA7B8AB6DA57EA58FA598A92BEA83
:103090003AEA4AE250E40E941F02DC01CB0189A710
:1030A0009AA7ABA7BCA769A57AA58BA59CA520E08C
:1030B00030E040E85FE30E94250488231CF481E0AF
:1030C00088A791C069A57AA58BA59CA520E030E0D2
:1030D0004FE753E40E94C50318160CF07BC06DA5A2
:1030E0007EA58FA598A920E030E04AE754E40E942D
:1030F0001903DC01CB018CA39DA3AEA3BFA36CA1DC
:103100007DA18EA19FA120E030E04AEF54E40E940F
:103110001F02DC01CB0188A399A3AAA3BBA368A1CA
:1031200079A18AA19BA120E030E040E85FE30E9402
:10313000250488232CF481E090E09F8F8E8F3FC080
:1031400068A179A18AA19BA120E03FEF4FE757E456
:103150000E94C50318164CF56CA17DA18EA19FA1FC
:1031600020E030E040E251E40E941F02DC01CB018C
:10317000BC01CD010E944900DC01CB019F8F8E8FE5
:103180000FC088EC90E09D8F8C8F8C8D9D8D01976A
:10319000F1F79D8F8C8F8E8D9F8D01979F8F8E8FD6
:1031A0008E8D9F8D009769F724C068A179A18AA1AF
:1031B0009BA10E944900DC01CB019F8F8E8F8E8DD9
:1031C0009F8D9B8F8A8F8A8D9B8D0197F1F79B8FA7
:1031D0008A8F0FC069A57AA58BA59CA50E9449007E
:1031E000DC01CB0188A788A5898F898D8A95F1F7A5
:1031F000898F8AA9882329F082E00E94D90B8093C5
:10320000B10483E062E040E00E94B30980E090E016
:10321000A0E2B1E48D8B9E8BAF8BB88F6D897E89D8
:103220008F89988D2BEA3AEA4AE250E40E941F0205
:10323000DC01CB01898B9A8BAB8BBC8B69897A893A
:103240008B899C8920E030E040E85FE30E94250400
:1032500088231CF481E0888B91C069897A898B89E5
:103260009C8920E030E04FE753E40E94C503181624
:103270000CF07BC06D897E898F89988D20E030E0CD
:103280004AE754E40E941903DC01CB018C879D8737
:10329000AE87BF876C857D858E859F8520E030E079
:1032A0004AEF54E40E941F02DC01CB018887998712
:1032B000AA87BB87688579858A859B8520E030E071
:1032C00040E85FE30E94250488232CF481E090E02D
:1032D0009F838E833FC0688579858A859B8520E0A2
:1032E0003FEF4FE757E40E94C50318164CF56C8575
:1032F0007D858E859F8520E030E040E251E40E948C
:103300001F02DC01CB01BC01CD010E944900DC01A0
:10331000CB019F838E830FC088EC90E09D838C83CC
:103320008C819D810197F1F79D838C838E819F8194
:1033300001979F838E838E819F81009769F724C0B8
:10334000688579858A859B850E944900DC01CB01CF
:103350009F838E838E819F819B838A838A819B81B9
:103360000197F1F79B838A830FC069897A898B89DA
:103370009C890E944900DC01CB01888B8889898364
:1033800089818A95F1F7898382E061E00E941707BD
:10339000E3960FB6F894DEBF0FBECDBFCF91DF919D
:1033A0000895DF93CF9300D0CDB7DEB79A8389839A
:1033B000898160E041E00E9405180F900F90CF9145
:1033C000DF910895DF93CF9300D00F92CDB7DEB792
:1033D0009B838A83198210C08981282F30E08A81DB
:1033E0009B81FC01E20FF31F8081882F90E00E94F7
:1033F000D11989818F5F89838981282F30E08A8163
:103400009B81FC01E20FF31F8081882329F78981CA
:103410000F900F900F90CF91DF910895DF93CF938E
:10342000CDB7DEB76D970FB6F894DEBF0FBECDBF38
:103430008C8F6D8F1A8E80E48B8F8D8D882F90E00E
:103440009C0121503040CE014A96FC01E20FF31F4F
:1034500090818C8D890F8150898F898D8058898FBB
:10346000898D60E040E00E94051880E090E0A0EACD
:10347000B1E48D8B9E8BAF8BB88F6D897E898F89E0
:10348000988D2BEA3AEA4AE250E40E941F02DC01DE
:10349000CB01898B9A8BAB8BBC8B69897A898B89A1
:1034A0009C8920E030E040E85FE30E942504882307
:1034B0001CF481E0888B91C069897A898B899C8909
:1034C00020E030E04FE753E40E94C50318160CF0EB
:1034D0007BC06D897E898F89988D20E030E04AE736
:1034E00054E40E941903DC01CB018C879D87AE87D1
:1034F000BF876C857D858E859F8520E030E04AEF13
:1035000054E40E941F02DC01CB0188879987AA87B7
:10351000BB87688579858A859B8520E030E040E817
:103520005FE30E94250488232CF481E090E09F83D0
:103530008E833FC0688579858A859B8520E03FEF33
:103540004FE757E40E94C50318164CF56C857D853E
:103550008E859F8520E030E040E251E40E941F020A
:10356000DC01CB01BC01CD010E944900DC01CB0193
:103570009F838E830FC088EC90E09D838C838C8129
:103580009D810197F1F79D838C838E819F810197A7
:103590009F838E838E819F81009769F724C0688501
:1035A00079858A859B850E944900DC01CB019F8338
:1035B0008E838E819F819B838A838A819B810197E1
:1035C000F1F79B838A830FC069897A898B899C89EB
:1035D0000E944900DC01CB01888B8889898389811D
:1035E0008A95F1F789836D960FB6F894DEBF0FBE0A
:1035F000CDBFCF91DF910895DF93CF930F92CDB7D9
:10360000DEB7198280E061E040E00E9405188091F9
:10361000B1048F77898389810F90CF91DF910895CD
:10362000DF93CF9300D0CDB7DEB789836A838981DA
:1036300061E00E940E1A14C08981813148F081E056
:103640008983898162E00E940E1A8A8180518A836F
:1036500080E260E041E00E94051889818F5F8983E4
:1036600099818A81891740F781E061E00E940E1AF2
:103670000F900F90CF91DF910895DF93CF93CDB747
:10368000DEB728970FB6F894DEBF0FBECDBF9A8382
:10369000898389819A8198878F83AF81B885A03487
:1036A000B10509F45DC08F8198858134910558F486
:1036B000AF81B885A130B105A9F08F819885883098
:1036C000910579F1AAC0AF81B88521E0A030B20799
:1036D00009F465C08F819885A4E080309A0709F4C9
:1036E0007DC09BC0AEE4B0E0EEE4F0E0808191816B
:1036F000816011969C938E93AEE4B0E0EEE4F0E02E
:10370000808191818D7F11969C938E93AEE4B0E081
:10371000EEE4F0E0808191818B7F11969C938E93F3
:10372000C0C0AEE4B0E0EEE4F0E0808191818E7F35
:1037300011969C938E93AEE4B0E0EEE4F0E08081CD
:103740009181826011969C938E93AEE4B0E0EEE49A
:10375000F0E0808191818B7F11969C938E93A1C024
:10376000AEE4B0E0EEE4F0E08081918181601196FA
:103770009C938E93AEE4B0E0EEE4F0E08081918122
:10378000826011969C938E93AEE4B0E0EEE4F0E09C
:10379000808191818B7F11969C938E9382C0AEE441
:1037A000B0E0EEE4F0E0808191818E7F11969C93F1
:1037B0008E93AEE4B0E0EEE4F0E0808191818D7F05
:1037C00011969C938E93AEE4B0E0EEE4F0E080813D
:1037D0009181846011969C938E9363C0AEE4B0E0B7
:1037E000EEE4F0E080819181816011969C938E934C
:1037F000AEE4B0E0EEE4F0E0808191818D7F11963F
:103800009C938E93AEE4B0E0EEE4F0E08081918191
:10381000846011969C938E9344C0AEE4B0E0EEE4D5
:10382000F0E0808191818E7F11969C938E93AEE41F
:10383000B0E0EEE4F0E0808191818D7F11969C9361
:103840008E93AEE4B0E0EEE4F0E0808191818B7F76
:1038500011969C938E9389819A81969587959695DA
:10386000879596958795CC01A0E0B0E0BC01CD018D
:103870000E94A904DC01CB018093B4049093B504A9
:10388000A093B604B093B7048091B4049091B504AA
:10389000A091B604B091B7048B839C83AD83BE83A3
:1038A00025C089819A819695879596958795969555
:1038B0008795CC01A0E0B0E0BC01CD010E94A90435
:1038C000DC01CB018093B4049093B504A093B604BB
:1038D000B093B7048091B4049091B504A091B6045C
:1038E000B091B7048B839C83AD83BE838B819C8115
:1038F000AD81BE81BC01CD0128960FB6F894DEBF24
:103900000FBECDBFCF91DF910895DF93CF9300D04D
:10391000CDB7DEB79A838983AFE5B0E0EFE5F0E09D
:10392000808180688C93A9E5B0E0E9E5F0E08081D2
:1039300080618C93AEE4B0E0EEE4F0E080819181B0
:10394000886011969C938E93AEE4B0E0EEE4F0E0D4
:10395000808191818F7E11969C938E93AEE4B0E02E
:10396000EEE4F0E0808191818E7F11969C938E939E
:10397000AEE4B0E0EEE4F0E0808191818D7F1196BD
:103980009C938E9389819A810E943D1B0F900F908A
:10399000CF91DF910895DF93CF9300D0CDB7DEB7FD
:1039A0009A838983EAE4F0E089819A819183808314
:1039B0000F900F90CF91DF910895DF93CF9300D0B8
:1039C000CDB7DEB79A83898389819A819093B304B6
:1039D0008093B2040F900F90CF91DF9108951F92C2
:1039E0000F920FB60F9211242F933F934F935F9333
:1039F0006F937F938F939F93AF93BF93EF93FF93B7
:103A0000DF93CF93CDB7DEB78091B2049091B3042A
:103A1000009729F0E091B204F091B3040995CF9199
:103A2000DF91FF91EF91BF91AF919F918F917F9126
:103A30006F915F914F913F912F910F900FBE0F901B
:103A40001F901895DF93CF93CDB7DEB788E090E055
:103A50000E9439339093C3048093C204E091C2045E
:103A6000F091C30411821082E091C204F091C3046A
:103A700017821682E091C204F091C3041282E09191
:103A8000C204F091C30414821382E091C204F09145
:103A9000C30415828091C2049091C3049093C5041D
:103AA0008093C404CF91DF910895DF93CF93CDB776
:103AB000DEB76B970FB6F894DEBF0FBECDBF988F01
:103AC0008F8B7A8F698F4B8F1E8A1D8A1C8A1B8A67
:103AD0001A8A198A8091C2049091C3049093C504F4
:103AE0008093C40488E090E00E943933988B8F87DC
:103AF0008091B8048F5F8093B8048091BA048F5F7F
:103B00008093BA0405C08D899E8901969E8B8D8B0A
:103B10002D893E89898D9A8DFC01E20FF31F8081EA
:103B2000882389F705C08B899C8901969C8B8B8B98
:103B30002B893C898F89988DFC01E20FF31F8081CE
:103B4000882389F78D899E8901960E943933EF85F4
:103B5000F889918380838B899C8901960E943933EF
:103B6000EF85F88994838383E091C404F091C504C0
:103B700086819781EF85F889978386838091BA043F
:103B8000EF85F8898283EF85F8898B8D85831A8A82
:103B9000198A17C0EF85F8892081318189899A892E
:103BA000D901A80FB91F29893A89898D9A8DFC01FD
:103BB000E20FF31F80818C9389899A8901969A8BF1
:103BC000898B29893A898D899E892817390714F3A9
:103BD000EF85F8892081318189899A89F901E80F77
:103BE000F91F10821A8A198A17C0EF85F889238174
:103BF000348189899A89D901A80FB91F29893A89FD
:103C00008F89988DFC01E20FF31F80818C93898945
:103C10009A8901969A8B898B29893A898B899C8903
:103C20002817390714F3EF85F889238134818989AE
:103C30009A89F901E80FF91F1082E091C404F0910C
:103C4000C5048F859889978386838FEB90E00E94C7
:103C5000E21980E090E0AAEFB3E48B879C87AD8700
:103C6000BE876B857C858D859E8520E030E04AEFA0
:103C700054E40E941F02DC01CB018F839887A9873F
:103C8000BA876F81788589859A8520E030E040E8A1
:103C90005FE30E94250488232CF481E090E09E835A
:103CA0008D833FC06F81788589859A8520E03FEFBD
:103CB0004FE757E40E94C50318164CF56B857C85C9
:103CC0008D859E8520E030E040E251E40E941F0295
:103CD000DC01CB01BC01CD010E944900DC01CB011C
:103CE0009E838D830FC088EC90E09C838B838B81B7
:103CF0009C810197F1F79C838B838D819E81019735
:103D00009E838D838D819E81009769F714C06F819A
:103D1000788589859A850E944900DC01CB019E83C4
:103D20008D838D819E819A83898389819A81019770
:103D3000F1F79A83898381E060E20E94101B81E0A1
:103D40006B960FB6F894DEBF0FBECDBFCF91DF915B
:103D50000895DF93CF9300D0CDB7DEB71A821982D2
:103D6000E091C404F091C504868197810097C1F069
:103D70008091C4049091C5049A838983E091C4041E
:103D8000F091C504868197819093C5048093C40403
:103D90000E94A91E89819A819093C5048093C404CE
:103DA0008091C4049091C5040E94E6331092B80437
:103DB00080E00F900F90CF91DF910895DF93CF9324
:103DC000CDB7DEB70E94EB1E0E94A91E0E94221DE5
:103DD000CF91DF910895DF93CF93CDB7DEB7809178
:103DE000C2049091C3049093C5048093C404CF91FE
:103DF000DF910895DF93CF93CDB7DEB7EF970FB67E
:103E0000F894DEBF0FBECDBF9DAF8CAF6EAFE0911B
:103E1000C204F091C304868197819093C504809376
:103E2000C4041BAE81E090E09AAF89AFC8C1E091B5
:103E3000C404F091C504238134818CAD9DADB901DA
:103E40000E94A023882349F4E091C404F091C504A2
:103E500092818EAD981709F0A3C181E08BAF80915C
:103E6000C4049091C5049093C7048093C60481E074
:103E700060E20E94101B8EEC90E00E94E21981E04B
:103E800062E00E940E1A8BED90E00E94E21980E041
:103E900090E0AAEFB3E48DAB9EABAFABB8AF6DA92A
:103EA0007EA98FA998AD20E030E04AEF54E40E944B
:103EB0001F02DC01CB0189AB9AABABABBCAB69A9F0
:103EC0007AA98BA99CA920E030E040E85FE30E943A
:103ED000250488232CF481E090E098AB8FA73FC0A5
:103EE00069A97AA98BA99CA920E03FEF4FE757E485
:103EF0000E94C50318164CF56DA97EA98FA998AD2F
:103F000020E030E040E251E40E941F02DC01CB01DE
:103F1000BC01CD010E944900DC01CB0198AB8FA709
:103F20000FC088EC90E09EA78DA78DA59EA5019758
:103F3000F1F79EA78DA78FA598A9019798AB8FA79A
:103F40008FA598A9009769F714C069A97AA98BA9C8
:103F50009CA90E944900DC01CB0198AB8FA78FA5DB
:103F600098A99CA78BA78BA59CA50197F1F79CA767
:103F70008BA781E060E20E94101B83EE90E00E941C
:103F8000E21981E062E00E940E1AE091C404F0910F
:103F9000C504808191810E94E21980E090E0AAEF3F
:103FA000B4E48FA398A7A9A7BAA76FA178A589A5FC
:103FB0009AA520E030E04AEF54E40E941F02DC01A1
:103FC000CB018BA39CA3ADA3BEA36BA17CA18DA1B0
:103FD0009EA120E030E040E85FE30E9425048823B2
:103FE0002CF481E090E09AA389A33FC06BA17CA14F
:103FF0008DA19EA120E03FEF4FE757E40E94C5034B
:1040000018164CF56FA178A589A59AA520E030E097
:1040100040E251E40E941F02DC01CB01BC01CD0152
:104020000E944900DC01CB019AA389A30FC088EC50
:1040300090E098A38F8F8F8D98A10197F1F798A3A7
:104040008F8F89A19AA101979AA389A389A19AA187
:10405000009769F714C06BA17CA18DA19EA10E945D
:104060004900DC01CB019AA389A389A19AA19E8F63
:104070008D8F8D8D9E8D0197F1F79E8F8D8F81E0B5
:1040800060E20E94101B89EE90E00E94E21981E03C
:1040900062E00E940E1AE091C404F091C50483818D
:1040A00094810E94E21980E090E0AAEFB4E4898F45
:1040B0009A8FAB8FBC8F698D7A8D8B8D9C8D20E014
:1040C00030E04AEF54E40E941F02DC01CB018D8BEB
:1040D0009E8BAF8BB88F6D897E898F89988D20E0FC
:1040E00030E040E85FE30E94250488232CF481E05F
:1040F00090E09C8B8B8B3FC06D897E898F89988DDA
:1041000020E03FEF4FE757E40E94C50318164CF537
:10411000698D7A8D8B8D9C8D20E030E040E251E4FA
:104120000E941F02DC01CB01BC01CD010E944900AD
:10413000DC01CB019C8B8B8B0FC088EC90E09A8BC1
:10414000898B89899A890197F1F79A8B898B8B8959
:104150009C8901979C8B8B8B8B899C89009769F735
:1041600014C06D897E898F89988D0E944900DC0179
:10417000CB019C8B8B8B8B899C89988B8F878F85B0
:1041800098890197F1F7988B8F8781E060E20E9410
:10419000101BE091C404F091C50482818FAFB2C0BE
:1041A000E091C404F091C504868197819093C50481
:1041B0008093C40489AD9AAD01969AAF89AF80917E
:1041C000B804282F332727FD309589AD9AAD2817DD
:1041D00039070CF02CCE8BAD91E08927882309F4A8
:1041E00088C081E061E00E940E1A8FEE90E00E948C
:1041F000E21980E090E0AAEFB4E48B879C87AD875A
:10420000BE876B857C858D859E8520E030E04AEFFA
:1042100054E40E941F02DC01CB018F839887A98799
:10422000BA876F81788589859A8520E030E040E8FB
:104230005FE30E94250488232CF481E090E09E83B4
:104240008D833FC06F81788589859A8520E03FEF17
:104250004FE757E40E94C50318164CF56B857C8523
:104260008D859E8520E030E040E251E40E941F02EF
:10427000DC01CB01BC01CD010E944900DC01CB0176
:104280009E838D830FC088EC90E09C838B838B8111
:104290009C810197F1F79C838B838D819E8101978F
:1042A0009E838D838D819E81009769F714C06F81F5
:1042B000788589859A850E944900DC01CB019E831F
:1042C0008D838D819E819A83898389819A810197CB
:1042D000F1F79A83898381E060E20E94101B80914C
:1042E000C2049091C3049093C5048093C4041FAE8C
:1042F00009C08091C2049091C3049093C504809337
:10430000C4041FAE8FADEF960FB6F894DEBF0FBE9C
:10431000CDBFCF91DF910895DF93CF93CDB7DEB7B7
:10432000AB970FB6F894DEBF0FBECDBF81E060E261
:104330000E94101BE091C204F091C3048681978112
:104340009093C5048093C4048091C4049091C504E3
:10435000009709F080C08DEF90E00E94E21980E0A4
:1043600090E0AAE7B4E48FA398A7A9A7BAA76FA182
:1043700078A589A59AA520E030E04AEF54E40E9490
:104380001F02DC01CB018BA39CA3ADA3BEA36BA139
:104390007CA18DA19EA120E030E040E85FE30E9477
:1043A000250488232CF481E090E09AA389A33FC0E0
:1043B0006BA17CA18DA19EA120E03FEF4FE757E4C8
:1043C0000E94C50318164CF56FA178A589A59AA57A
:1043D00020E030E040E251E40E941F02DC01CB010A
:1043E000BC01CD010E944900DC01CB019AA389A345
:1043F0000FC088EC90E098A38F8F8F8D98A10197C4
:10440000F1F798A38F8F89A19AA101979AA389A305
:1044100089A19AA1009769F714C06BA17CA18DA115
:104420009EA10E944900DC01CB019AA389A389A126
:104430009AA19E8F8D8F8D8D9E8D0197F1F79E8F06
:104440008D8F8091C2049091C3049093C504809392
:10445000C4041BA634C181E062E00E940E1AE09100
:10446000C404F091C504838194810E94E21981E023
:1044700061E00E940E1A86E091E00E94E219E0914C
:10448000C404F091C504808191810E94E21980E00A
:1044900090E0AAE7B4E4898F9A8FAB8FBC8F698DC7
:1044A0007A8D8B8D9C8D20E030E04AEF54E40E94A1
:1044B0001F02DC01CB018D8B9E8BAF8BB88F6D897A
:1044C0007E898F89988D20E030E040E85FE30E948C
:1044D000250488232CF481E090E09C8B8B8B3FC0DB
:1044E0006D897E898F89988D20E03FEF4FE757E4F3
:1044F0000E94C50318164CF5698D7A8D8B8D9C8DA5
:1045000020E030E040E251E40E941F02DC01CB01D8
:10451000BC01CD010E944900DC01CB019C8B8B8B3F
:104520000FC088EC90E09A8B898B89899A890197D2
:10453000F1F79A8B898B8B899C8901979C8B8B8B4C
:104540008B899C89009769F714C06D897E898F8952
:10455000988D0E944900DC01CB019C8B8B8B8B8951
:104560009C89988B8F878F8598890197F1F7988B15
:104570008F8781E160E20E94101B81E062E00E946F
:104580000E1A88E091E00E94E219E091C404F091D3
:10459000C5048581882F90E00E94D32E80E090E0B2
:1045A000AAE7B4E48B879C87AD87BE876B857C8543
:1045B0008D859E8520E030E04AEF54E40E941F0282
:1045C000DC01CB018F839887A987BA876F817885B3
:1045D00089859A8520E030E040E85FE30E94250469
:1045E00088232CF481E090E09E838D833FC06F810F
:1045F000788589859A8520E03FEF4FE757E40E9450
:10460000C50318164CF56B857C858D859E8520E04D
:1046100030E040E251E40E941F02DC01CB01BC010A
:10462000CD010E944900DC01CB019E838D830FC028
:1046300088EC90E09C838B838B819C810197F1F7C0
:104640009C838B838D819E8101979E838D838D8139
:104650009E81009769F714C06F81788589859A8556
:104660000E944900DC01CB019E838D838D819E8158
:104670009A83898389819A810197F1F79A83898343
:1046800081E060E20E94101BE091C404F091C50437
:10469000868197819093C5048093C4048091C4045B
:1046A0009091C504009709F0D6CE8091C2049091F4
:1046B000C3049093C5048093C40481E08BA78BA5A9
:1046C000AB960FB6F894DEBF0FBECDBFCF91DF9192
:1046D0000895DF93CF930F92CDB7DEB7E091C60474
:1046E000F091C7048581882381F0A091C604B09120
:1046F000C704E091C604F091C704858181501596E6
:104700008C93159781E0898301C0198289810F906C
:10471000CF91DF910895DF93CF93CDB7DEB7A0910E
:10472000C604B091C704E091C604F091C704858126
:104730008F5F15968C93159781E0CF91DF91089547
:10474000DF93CF93CDB7DEB727970FB6F894DEBFD0
:104750000FBECDBF9C838B837E836D831A828B813A
:104760009C812D813E81B9010E94EE238A838A813A
:10477000882349F1198219C08981282F30E08B8163
:104780009C81FC01E20FF31F40818981282F30E0DA
:104790008D819E81FC01E20FF31F8081481711F08B
:1047A0001F8212C089818F5F89838981282F30E021
:1047B0008B819C81FC01E20FF31F80818823E1F64D
:1047C00081E08F8301C01F828F8127960FB6F894F6
:1047D000DEBF0FBECDBFCF91DF910895DF93CF93A2
:1047E000CDB7DEB727970FB6F894DEBF0FBECDBFAB
:1047F0009C838B837E836D831A82198203C08A8196
:104800008F5F8A838A81282F30E08B819C81FC0115
:10481000E20FF31F8081882391F703C089818F5FA6
:1048200089838981282F30E08D819E81FC01E20FF0
:10483000F31F8081882391F799818A81981719F451
:1048400081E08F8301C01F828F8127960FB6F89475
:10485000DEBF0FBECDBFCF91DF910895DF93CF9321
:1048600000D0CDB7DEB78CE090E00E943933909352
:10487000CB048093CA04E091CA04F091CB04118266
:104880001082E091CA04F091CB0413861286E09165
:10489000CA04F091CB0414821382E091CA04F0910F
:1048A000CB0412821A82198210C02091CA0430915E
:1048B000CB0489819A81820F931FFC013596108267
:1048C00089819A8101969A83898389819A81853029
:1048D00091055CF38091CA049091CB049093C90434
:1048E0008093C8040F900F90CF91DF910895DF93CC
:1048F000CF93CDB7DEB76D970FB6F894DEBF0FBE7E
:10490000CDBF9A8F898F7C8F6B8F188E1F8A1E8ADE
:104910001D8A1C8A1B8A1A8A198A898D9A8D60E0E1
:104920000E9456269A8B898B89899A89009731F043
:1049300081E191E00E94E2191D8E49C18091CA0473
:104940009091CB049093C9048093C8048CE090E0CC
:104950000E943933988B8F878091BB048F5F80933F
:10496000BB048091BD048F5F8093BD0405C08F8917
:10497000988D0196988F8F8B2F89388D8B8D9C8D7C
:10498000FC01E20FF31F8081882389F78F89988DBE
:1049900001960E943933EF85F8899183808305C0A1
:1049A0008B899C8901969C8B8B8B2B893C89898D6B
:1049B0009A8DFC01E20FF31F8081882389F78B8990
:1049C0009C8901960E943933EF85F889948383830B
:1049D000E091C804F091C90482859385EF85F88938
:1049E000938782878091BD04EF85F88982831E8A30
:1049F0001D8A17C0EF85F889208131818D899E89B4
:104A0000D901A80FB91F2D893E898B8D9C8DFC0182
:104A1000E20FF31F80818C938D899E8901969E8B76
:104A20008D8B2D893E898F89988D2817390714F32E
:104A3000EF85F889208131818D899E89F901E80F00
:104A4000F91F10821E8A1D8A17C0EF85F8892381FD
:104A500034818D899E89D901A80FB91F2D893E897E
:104A6000898D9A8DFC01E20FF31F80818C938D89D3
:104A70009E8901969E8B8D8B2D893E898B899C8981
:104A80002817390714F3EF85F889238134818D893C
:104A90009E89F901E80FF91F10821E8A1D8A0EC037
:104AA0002D893E898F859889820F931FFC01359649
:104AB00010828D899E8901969E8B8D8B8D899E8912
:104AC000853091056CF3E091C804F091C9048F859D
:104AD00098899387828782E291E00E94E21980E0C0
:104AE00090E0AAEFB3E48B879C87AD87BE876B8588
:104AF0007C858D859E8520E030E04AEF54E40E945D
:104B00001F02DC01CB018F839887A987BA876F8149
:104B1000788589859A8520E030E040E85FE30E944F
:104B2000250488232CF481E090E09E838D833FC090
:104B30006F81788589859A8520E03FEF4FE757E4BC
:104B40000E94C50318164CF56B857C858D859E8566
:104B500020E030E040E251E40E941F02DC01CB0182
:104B6000BC01CD010E944900DC01CB019E838D83F5
:104B70000FC088EC90E09C838B838B819C81019794
:104B8000F1F79C838B838D819E8101979E838D831A
:104B90008D819E81009769F714C06F817885898522
:104BA0009A850E944900DC01CB019E838D838D8113
:104BB0009E819A83898389819A810197F1F79A83EB
:104BC000898381E060E20E94101B81E08D8F8D8DD2
:104BD0006D960FB6F894DEBF0FBECDBFCF91DF91BB
:104BE0000895DF93CF9300D0CDB7DEB71A82198234
:104BF000E091C804F091C904828593850097C1F0C3
:104C00008091C8049091C9049A838983E091C80473
:104C1000F091C904828593859093C9048093C80458
:104C20000E94F12589819A819093C9048093C804D8
:104C30008091C8049091C9040E94E6331092BB048D
:104C400080E00F900F90CF91DF910895DF93CF9385
:104C5000CDB7DEB70E9433260E94F1250E942E2494
:104C6000CF91DF910895DF93CF93CDB7DEB78091D9
:104C7000CA049091CB049093C9048093C804CF9147
:104C8000DF910895DF93CF9300D00F92CDB7DEB7B9
:104C90009A8389836B8389819A816B810E945626CE
:104CA0000F900F900F90CF91DF910895DF93CF93E6
:104CB000CDB7DEB769970FB6F894DEBF0FBECDBF94
:104CC0009E8B8D8B6F8BE091CA04F091CB04828513
:104CD00093859093C9048093C8041C8A1B8A1A8AFE
:104CE00081E090E0998B888BF7C0E091C804F09147
:104CF000C904238134818D899E89B9010E94A02332
:104D0000882309F4DAC081E060E20E94101B82E38C
:104D100091E00E94E219E091C804F091C9048081F9
:104D200091810E94E21981E062E00E940E1A89E3FB
:104D300091E00E94E219E091C804F091C9048381D6
:104D400094810E94E21980E090E0AAEFB4E48B879E
:104D50009C87AD87BE876B857C858D859E8520E091
:104D600030E04AEF54E40E941F02DC01CB018F8344
:104D70009887A987BA876F81788589859A8520E089
:104D800030E040E85FE30E94250488232CF481E0B2
:104D900090E09E838D833FC06F81788589859A8559
:104DA00020E03FEF4FE757E40E94C50318164CF58B
:104DB0006B857C858D859E8520E030E040E251E466
:104DC0000E941F02DC01CB01BC01CD010E94490001
:104DD000DC01CB019E838D830FC088EC90E09C8327
:104DE0008B838B819C810197F1F79C838B838D81D1
:104DF0009E8101979E838D838D819E81009769F7A7
:104E000014C06F81788589859A850E944900DC01EC
:104E1000CB019E838D838D819E819A838983898135
:104E20009A810197F1F79A83898381E060E20E9479
:104E3000101B8F898823A1F181E061E00E940E1A86
:104E40008EE391E00E94E2191F8627C08F858F5F55
:104E500062E00E940E1A2091C8043091C9048F8527
:104E6000882F90E0820F931FFC0135968081882364
:104E700089F02091C8043091C9048F85882F90E073
:104E8000820F931FFC013596208180E090E0622F15
:104E90000E94FA1E8F858F5F8F878F858530B0F2D5
:104EA00081E060E20E94101B81E08C8B8091C8043D
:104EB0009091C904998F888F37C0E091C804F09110
:104EC000C904828593859093C9048093C804888916
:104ED00099890196998B888B8091BB04282F332761
:104EE00027FD309588899989281739070CF0FDCE60
:104EF0008C8991E08927882359F08091CA04909188
:104F0000CB049093C9048093C804198E188E0CC0EA
:104F10008091CA049091CB049093C9048093C804F3
:104F20008A899B89998F888F888D998D69960FB60C
:104F3000F894DEBF0FBECDBFCF91DF910895DF9310
:104F4000CF93CDB7DEB7C254D0400FB6F894DEBFD2
:104F50000FBECDBFFE01FF9691838083FE01EF5B04
:104F6000FF4F718360831EAE1DAE1CAEFE01FF9627
:104F70008081918160E00E9456269BAF8AAFFE013E
:104F8000EF5BFF4F8081918160E00E94FA1E8DAF40
:104F90008AAD9BAD009729F48EE491E00E94E2195E
:104FA00028C28DAD882309F42AC119AE23C189AD69
:104FB000282F30E08AAD9BAD820F931FFC01359600
:104FC0008081882309F013C10E9469238CAF8CADC6
:104FD000882309F492C089AD282F30E08AAD9BADBB
:104FE000820F931FFC0135968DAD808388E591E09B
:104FF0000E94E21981E062E00E940E1A8BE691E0C5
:105000000E94E21980E090E0AAEFB4E48DAB9EAB81
:10501000AFABB8AF6DA97EA98FA998AD20E030E005
:105020004AEF54E40E941F02DC01CB0189AB9AAB2A
:10503000ABABBCAB69A97AA98BA99CA920E030E0F5
:1050400040E85FE30E94250488232CF481E090E08F
:1050500098AB8FA73FC069A97AA98BA99CA920E02A
:105060003FEF4FE757E40E94C50318164CF56DA9B2
:105070007EA98FA998AD20E030E040E251E40E9483
:105080001F02DC01CB01BC01CD010E944900DC0103
:10509000CB0198AB8FA70FC088EC90E09EA78DA79F
:1050A0008DA59EA50197F1F79EA78DA78FA598A91D
:1050B000019798AB8FA78FA598A9009769F714C09F
:1050C00069A97AA98BA99CA90E944900DC01CB019E
:1050D00098AB8FA78FA598A99CA78BA78BA59CA5FC
:1050E0000197F1F79CA78BA781E060E20E94101B5B
:1050F00081E08EAF85E089AF7AC087E791E00E94BA
:10510000E21980E090E0AAEFB4E48FA398A7A9A7E2
:10511000BAA76FA178A589A59AA520E030E04AEF4B
:1051200054E40E941F02DC01CB018BA39CA3ADA31E
:10513000BEA36BA17CA18DA19EA120E030E040E840
:105140005FE30E94250488232CF481E090E09AA379
:1051500089A33FC06BA17CA18DA19EA120E03FEF60
:105160004FE757E40E94C50318164CF56FA178A5C8
:1051700089A59AA520E030E040E251E40E941F0298
:10518000DC01CB01BC01CD010E944900DC01CB0157
:105190009AA389A30FC088EC90E098A38F8F8F8D7E
:1051A00098A10197F1F798A38F8F89A19AA10197F0
:1051B0009AA389A389A19AA1009769F714C06BA14A
:1051C0007CA18DA19EA10E944900DC01CB019AA384
:1051D00089A389A19AA19E8F8D8F8D8D9E8D019718
:1051E000F1F79E8F8D8F81E060E20E94101B89ADE8
:1051F0008F5F89AF89AD853008F4D9CE7CC086E851
:1052000091E00E94E21980E090E0AAEFB4E4898F77
:105210009A8FAB8FBC8F698D7A8D8B8D9C8D20E0A2
:1052200030E04AEF54E40E941F02DC01CB018D8B79
:105230009E8BAF8BB88F6D897E898F89988D20E08A
:1052400030E040E85FE30E94250488232CF481E0ED
:1052500090E09C8B8B8B3FC06D897E898F89988D68
:1052600020E03FEF4FE757E40E94C50318164CF5C6
:10527000698D7A8D8B8D9C8D20E030E040E251E489
:105280000E941F02DC01CB01BC01CD010E9449003C
:10529000DC01CB019C8B8B8B0FC088EC90E09A8B50
:1052A000898B89899A890197F1F79A8B898B8B89E8
:1052B0009C8901979C8B8B8B8B899C89009769F7C4
:1052C00014C06D897E898F89988D0E944900DC0108
:1052D000CB019C8B8B8B8B899C89988B8F878F853F
:1052E00098890197F1F7988B8F8781E060E20E949F
:1052F000101B81E08EAF8EAD882309F07AC083E960
:1053000091E00E94E21980E090E0AAEFB4E48B877C
:105310009C87AD87BE876B857C858D859E8520E0CB
:1053200030E04AEF54E40E941F02DC01CB018F837E
:105330009887A987BA876F81788589859A8520E0C3
:1053400030E040E85FE30E94250488232CF481E0EC
:1053500090E09E838D833FC06F81788589859A8593
:1053600020E03FEF4FE757E40E94C50318164CF5C5
:105370006B857C858D859E8520E030E040E251E4A0
:105380000E941F02DC01CB01BC01CD010E9449003B
:10539000DC01CB019E838D830FC088EC90E09C8361
:1053A0008B838B819C810197F1F79C838B838D810B
:1053B0009E8101979E838D838D819E81009769F7E1
:1053C00014C06F81788589859A850E944900DC0127
:1053D000CB019E838D838D819E819A838983898170
:1053E0009A810197F1F79A83898381E060E20E94B4
:1053F000101BCE5BDF4F0FB6F894DEBF0FBECDBFE4
:10540000CF91DF910895DF93CF93CDB7DEB7EA97C1
:105410000FB6F894DEBF0FBECDBFE091CA04F09185
:10542000CB04828593859093C9048093C80481E05E
:1054300061E00E940E1A8DE991E00E94E21981E07C
:1054400062E00E940E1A8091BB04992787FD909517
:105450000E94D32E80E090E0AAE7B4E48DAB9EAB2F
:10546000AFABB8AF6DA97EA98FA998AD20E030E0B1
:105470004AEF54E40E941F02DC01CB0189AB9AABD6
:10548000ABABBCAB69A97AA98BA99CA920E030E0A1
:1054900040E85FE30E94250488232CF481E090E03B
:1054A00098AB8FA73FC069A97AA98BA99CA920E0D6
:1054B0003FEF4FE757E40E94C50318164CF56DA95E
:1054C0007EA98FA998AD20E030E040E251E40E942F
:1054D0001F02DC01CB01BC01CD010E944900DC01AF
:1054E000CB0198AB8FA70FC088EC90E09EA78DA74B
:1054F0008DA59EA50197F1F79EA78DA78FA598A9C9
:10550000019798AB8FA78FA598A9009769F714C04A
:1055100069A97AA98BA99CA90E944900DC01CB0149
:1055200098AB8FA78FA598A99CA78BA78BA59CA5A7
:105530000197F1F79CA78BA781E060E20E94101B06
:105540008091C8049091C904009709F084C08EEA44
:1055500091E00E94E21980E090E0AAEFB4E48FA30A
:1055600098A7A9A7BAA76FA178A589A59AA520E0B1
:1055700030E04AEF54E40E941F02DC01CB018BA310
:105580009CA3ADA3BEA36BA17CA18DA19EA120E095
:1055900030E040E85FE30E94250488232CF481E09A
:1055A00090E09AA389A33FC06BA17CA18DA19EA18D
:1055B00020E03FEF4FE757E40E94C50318164CF573
:1055C0006FA178A589A59AA520E030E040E251E4DA
:1055D0000E941F02DC01CB01BC01CD010E944900E9
:1055E000DC01CB019AA389A30FC088EC90E098A3BB
:1055F0008F8F8F8D98A10197F1F798A38F8F89A135
:105600009AA101979AA389A389A19AA1009769F702
:1056100014C06BA17CA18DA19EA10E944900DC0158
:10562000CB019AA389A389A19AA19E8F8D8F8D8D7D
:105630009E8D0197F1F79E8F8D8F81E060E20E9431
:10564000101B8091CA049091CB049093C90480935D
:10565000C8041AAE48C181E062E00E940E1A89EBCC
:1056600091E00E94E219E091C804F091C90483819D
:1056700094810E94E21981E061E00E940E1A82EC9E
:1056800091E00E94E219E091C804F091C904808180
:1056900091810E94E21980E090E0AAEFB4E4898F42
:1056A0009A8FAB8FBC8F698D7A8D8B8D9C8D20E00E
:1056B00030E04AEF54E40E941F02DC01CB018D8BE5
:1056C0009E8BAF8BB88F6D897E898F89988D20E0F6
:1056D00030E040E85FE30E94250488232CF481E059
:1056E00090E09C8B8B8B3FC06D897E898F89988DD4
:1056F00020E03FEF4FE757E40E94C50318164CF532
:10570000698D7A8D8B8D9C8D20E030E040E251E4F4
:105710000E941F02DC01CB01BC01CD010E944900A7
:10572000DC01CB019C8B8B8B0FC088EC90E09A8BBB
:10573000898B89899A890197F1F79A8B898B8B8953
:105740009C8901979C8B8B8B8B899C89009769F72F
:1057500014C06D897E898F89988D0E944900DC0173
:10576000CB019C8B8B8B8B899C89988B8F878F85AA
:1057700098890197F1F7988B8F8781E060E20E940A
:10578000101B8DEC91E00E94E21919AE18C089AD92
:105790008F5F62E00E940E1A2091C8043091C90404
:1057A00089AD882F90E0820F931FFC013596808190
:1057B000882F90E00E94D32E89AD8F5F89AF89AD8D
:1057C000853028F380E090E0AAEFB4E48B879C87D3
:1057D000AD87BE876B857C858D859E8520E030E01A
:1057E0004AEF54E40E941F02DC01CB018F839887AB
:1057F000A987BA876F81788589859A8520E030E00E
:1058000040E85FE30E94250488232CF481E090E0C7
:105810009E838D833FC06F81788589859A8520E03E
:105820003FEF4FE757E40E94C50318164CF56B8510
:105830007C858D859E8520E030E040E251E40E9429
:105840001F02DC01CB01BC01CD010E944900DC013B
:10585000CB019E838D830FC088EC90E09C838B836B
:105860008B819C810197F1F79C838B838D819E8135
:1058700001979E838D838D819E81009769F714C067
:105880006F81788589859A850E944900DC01CB016A
:105890009E838D838D819E819A83898389819A815C
:1058A0000197F1F79A83898381E060E20E94101BDF
:1058B000E091C804F091C904828593859093C9044E
:1058C0008093C8048091C8049091C904009709F09E
:1058D000C2CE8091CA049091CB049093C904809366
:1058E000C80481E08AAF8AADEA960FB6F894DEBFAD
:1058F0000FBECDBFCF91DF910895DF93CF93CDB78A
:10590000DEB7C154D0400FB6F894DEBF0FBECDBF96
:105910009FAF8EAFFE01E05CFF4F718360831DAED1
:105920001CAE8EAD9FAD60E00E9456269BAF8AAF45
:10593000FE01E05CFF4F8081918160E00E94FA1ED1
:105940008CAF8AAD9BAD009709F07BC087ED91E0ED
:105950000E94E21980E090E0AAEFB4E48DAB9EAB28
:10596000AFABB8AF6DA97EA98FA998AD20E030E0AC
:105970004AEF54E40E941F02DC01CB0189AB9AABD1
:10598000ABABBCAB69A97AA98BA99CA920E030E09C
:1059900040E85FE30E94250488232CF481E090E036
:1059A00098AB8FA73FC069A97AA98BA99CA920E0D1
:1059B0003FEF4FE757E40E94C50318164CF56DA959
:1059C0007EA98FA998AD20E030E040E251E40E942A
:1059D0001F02DC01CB01BC01CD010E944900DC01AA
:1059E000CB0198AB8FA70FC088EC90E09EA78DA746
:1059F0008DA59EA50197F1F79EA78DA78FA598A9C4
:105A0000019798AB8FA78FA598A9009769F714C045
:105A100069A97AA98BA99CA90E944900DC01CB0144
:105A200098AB8FA78FA598A99CA78BA78BA59CA5A2
:105A30000197F1F79CA78BA781E060E20E94101B01
:105A4000A8C18CAD882309F4A2C019AE9BC089AD52
:105A5000282F30E08AAD9BAD820F931FFC01359655
:105A600090818CAD981709F08AC00E948B2389AD74
:105A7000282F30E08AAD9BAD820F931FFC01359635
:105A8000108284EE91E00E94E21980E090E0AAEF9B
:105A9000B4E48FA398A7A9A7BAA76FA178A589A5F1
:105AA0009AA520E030E04AEF54E40E941F02DC0196
:105AB000CB018BA39CA3ADA3BEA36BA17CA18DA1A5
:105AC0009EA120E030E040E85FE30E9425048823A7
:105AD0002CF481E090E09AA389A33FC06BA17CA144
