:100000000C942A000C9447000C9447000C94470071
:100010000C9447000C9447000C9447000C94470044
:100020000C9447000C9447000C9447000C94470034
:100030000C9447000C9447000C9447000C94470024
:100040000C9447000C9447000C9447000C94470014
:100050000C94470011241FBECFE5D8E0DEBFCDBF12
:1000600013E0A0E6B0E0E4ECFAE502C005900D92E2
:10007000AA35B107D9F713E0AAE5B3E001C01D9294
:10008000A43CB107E1F70E94C62A0C94602D0C94A1
:100090000000EF92FF920F931F937B018C0120E0F1
:1000A00030E040E05FE40E94F50388238CF0C80153
:1000B000B70120E030E040E05FE40E94C1010E940F
:1000C00055049B01AC01205030404040504806C0D0
:1000D000C801B7010E9455049B01AC01B901CA01D6
:1000E0001F910F91FF90EF900895A0E0B0E0EBE733
:1000F000F0E00C94242CDC012B01FA019C9192304D
:1001000008F439C1EB018881823008F433C194309E
:1001100069F4843009F02FC111969C91119789815F
:10012000981709F428C1ABE1B3E025C1843009F484
:1001300021C18230A9F4923009F01DC19A01AD01AC
:1001400088E0EA010990AE01E90109929E0181501F
:10015000C1F7E201898111969C918923818308C1AD
:10016000923009F407C112962D903C901397EB0141
:100170008A819B811496AD90BD90CD90DC901797AD
:10018000EC80FD800E811F819101281B390BB90184
:1001900037FF04C066277727621B730B6032710537
:1001A0000CF061C0121613066CF537014801062EDB
:1001B00004C096948794779467940A94D2F721E0C8
:1001C00030E040E050E004C0220F331F441F551FB1
:1001D0006A95D2F721503040404050402E213F21B7
:1001E00040235123211531054105510521F021E01E
:1001F00030E040E050E079018A01E628F72808293C
:1002000019293CC0232BD1F1260E371E350146019A
:10021000062E04C096948794779467940A94D2F734
:1002200021E030E040E050E004C0220F331F441FC3
:10023000551F6A95D2F721503040404050402A2146
:100240003B214C215D21211531054105510521F04E
:1002500021E030E040E050E059016A01A628B728CB
:10026000C828D9280BC0821593052CF01C01AA249C
:10027000BB24650103C0EE24FF24870111969C91E5
:10028000D20111968C91981709F445C0992339F041
:10029000A80197012A193B094C095D0906C0A6016E
:1002A00095012E193F09400B510B57FD08C01182D3
:1002B0003382228224833583468357831DC081E0A5
:1002C00081833382228288279927DC01821B930B4A
:1002D000A40BB50B84839583A683B7830DC0220F2F
:1002E000331F441F551F24833583468357838281E0
:1002F000938101979383828324813581468157813D
:10030000DA01C9010197A109B1098F5F9F4FAF4F72
:10031000BF4328F30BC0918333822282EA0CFB1C7B
:100320000C1D1D1DE482F5820683178383E0808304
:10033000248135814681578157FF1AC0C901AA27F8
:1003400097FDA095BA2F81709070A070B0705695EF
:10035000479537952795822B932BA42BB52B848318
:100360009583A683B7838281938101969383828349
:10037000DF0101C0D201CD01CDB7DEB7E2E10C94BF
:10038000402CA0E2B0E0E7ECF1E00C94302C698363
:100390007A838B839C832D833E834F835887E9E048
:1003A000EE2EF12CEC0EFD1ECE010196B7010E943F
:1003B0007E058E010F5E1F4FCE010596B8010E948B
:1003C0007E058A8991E089278A8BC701B801AE0131
:1003D000475E5F4F0E9475000E94A904A096E6E068
:1003E0000C944C2CA0E2B0E0E8EFF1E00C94302C3F
:1003F00069837A838B839C832D833E834F835887C5
:10040000F9E0EF2EF12CEC0EFD1ECE010196B701A6
:100410000E947E058E010F5E1F4FCE010596B8012A
:100420000E947E05C701B801AE01475E5F4F0E9482
:1004300075000E94A904A096E6E00C944C2CA0E262
:10044000B0E0E5E2F2E00C94242C69837A838B839C
:100450009C832D833E834F835887CE010196BE0136
:10046000675F7F4F0E947E05CE010596BE016F5EDD
:100470007F4F0E947E059985923088F0898982306D
:10048000C8F0943019F4823051F404C0843029F457
:10049000923081F48BE193E0C6C0923049F420E0C1
:1004A0009A858A89981321E02A87CE010996BBC0D4
:1004B000823049F420E09A858A89981321E02A8BBA
:1004C000CE014196B0C02D843E844F8458886D88FB
:1004D0007E888F88988CEE24FF248701AA24BB2471
:1004E000650140E050E060E070E0E0E0F0E0C10174
:1004F00081709070892BE9F0E60CF71C081D191D1E
:100500009A01AB012A0D3B1D4C1D5D1D80E090E062
:10051000A0E0B0E0E614F7040805190520F481E036
:1005200090E0A0E0B0E0BA01A901480F591F6A1F8E
:100530007B1FAA0CBB1CCC1CDD1C97FE08C081E0F5
:1005400090E0A0E0B0E0A82AB92ACA2ADB2A3196B6
:10055000E032F10549F0660C771C881C991C569412
:10056000479437942794C3CFFA85EA892B893C892D
:100570008B859C85280F391F2E5F3F4F17C0CA01FE
:1005800081709070892B61F016950795F794E79428
:1005900080E090E0A0E0B0E8E82AF92A0A2B1B2BC3
:1005A00076956795579547952F5F3F4F77FDE7CF36
:1005B0000CC0440F551F661F771F17FD4160EE0CDE
:1005C000FF1C001F111F21503040403090E05907A0
:1005D00090E0690790E4790760F32B8F3C8FDB0193
:1005E000CA018F779070A070B07080349105A1051A
:1005F000B10561F447FD0AC0E114F10401051105DC
:1006000029F0405C5F4F6F4F7F4F40781A8EFE1786
:1006100011F081E08A8F4D8F5E8F6F8F78A383E01A
:10062000898FCE0149960E94A904A096E2E10C941C
:10063000402CA8E1B0E0EFE1F3E00C942C2C6983AE
:100640007A838B839C832D833E834F835887B9E0C5
:10065000EB2EF12CEC0EFD1ECE010196B7010E948F
:100660007E058E010F5E1F4FCE010596B8010E94D8
:100670007E052985223008F47EC03989323010F495
:10068000B8017CC08A859A8989278A87243011F02D
:10069000223031F4231709F06EC06BE173E06EC0B5
:1006A000343039F41D861E861F86188A1C861B86E8
:1006B00004C0323021F484E08987B7015FC02B8504
:1006C0003C858B899C89281B390B3C872B87ED84C3
:1006D000FE840F851889AD88BE88CF88D88CEA142F
:1006E000FB040C051D0540F4EE0CFF1C001F111F40
:1006F000215030403C872B8720E030E040E050E044
:1007000080E090E0A0E0B0E460E070E0EA14FB0478
:100710000C051D0540F0282B392B4A2B5B2BEA18C2
:10072000FB080C091D09B695A79597958795EE0CC2
:10073000FF1C001F111F6F5F7F4F6F31710531F775
:10074000DA01C9018F779070A070B0708034910584
:10075000A105B10561F427FD0AC0E114F10401050A
:10076000110529F0205C3F4F4F4F5F4F20782D87B8
:100770003E874F87588BBE01675F7F4FCB010E943A
:10078000A9046896EAE00C94482CA8E1B0E0EBECF0
:10079000F3E00C94302C69837A838B839C832D83C4
:1007A0003E834F83588789E0E82EF12CEC0EFD1E26
:1007B000CE010196B7010E947E058E010F5E1F4F8C
:1007C000CE010596B8010E947E058985823040F0F1
:1007D0008989823028F0C701B8010E94F60501C05E
:1007E0008FEF6896E6E00C944C2CA8E1B0E0EBEFBC
:1007F000F3E00C94302C69837A838B839C832D8364
:100800003E834F83588789E0E82EF12CEC0EFD1EC5
:10081000CE010196B7010E947E058E010F5E1F4F2B
:10082000CE010596B8010E947E058985823040F090
:100830008989823028F0C701B8010E94F60501C0FD
:100840008FEF6896E6E00C944C2CA8E1B0E0EBE268
:10085000F4E00C94302C69837A838B839C832D8302
:100860003E834F83588789E0E82EF12CEC0EFD1E65
:10087000CE010196B7010E947E058E010F5E1F4FCB
:10088000CE010596B8010E947E058985823040F030
:100890008989823028F0C701B8010E94F60501C09D
:1008A00081E06896E6E00C944C2CACE0B0E0EBE51F
:1008B000F4E00C94342C69837A838B839C83CE017F
:1008C0000196BE016B5F7F4F0E947E058D81823055
:1008D00061F1823050F1843021F48E81882351F10E
:1008E0002EC02F81388537FD20C06E812F31310514
:1008F0001CF06623F9F023C08EE190E0821B930B7D
:1009000029853A854B855C8504C056954795379572
:1009100027958A95D2F76623B1F05095409530958A
:1009200021953F4F4F4F5F4F0EC020E030E040E039
:1009300050E009C02FEF3FEF4FEF5FE704C020E02A
:1009400030E040E050E8B901CA012C96E2E00C9496
:10095000502CDF92EF92FF920F931F93FC01E480E3
:10096000F58006811781D1808081823048F480E053
:1009700090E0A0E1B0E0E82AF92A0A2B1B2BA5C0E1
:10098000843009F49FC0823021F4EE24FF248701D3
:1009900005C0E114F1040105110519F4E0E0F0E0EF
:1009A00096C0628173819FEF623879070CF05BC05B
:1009B00022E83FEF261B370B2A3131052CF020E0CF
:1009C00030E040E050E02AC0B801A701022E04C088
:1009D00076956795579547950A94D2F781E090E010
:1009E000A0E0B0E004C0880F991FAA1FBB1F2A9582
:1009F000D2F70197A109B1098E219F21A023B1232C
:100A00000097A105B10521F081E090E0A0E0B0E001
:100A10009A01AB01282B392B4A2B5B2BDA01C90138
:100A20008F779070A070B07080349105A105B105EA
:100A300039F427FF09C0205C3F4F4F4F5F4F04C080
:100A4000215C3F4F4F4F5F4FE0E0F0E02030A0E0EF
:100A50003A07A0E04A07A0E45A0710F0E1E0F0E00E
:100A600079018A0127C06038710564F5FB01E158FE
:100A7000FF4FD801C7018F779070A070B07080349D
:100A80009105A105B10539F4E7FE0DC080E490E0C1
:100A9000A0E0B0E004C08FE390E0A0E0B0E0E80E9A
:100AA000F91E0A1F1B1F17FF05C016950795F7941F
:100AB000E794319687E016950795F794E7948A9521
:100AC000D1F705C0EE24FF248701EFEFF0E06E2F91
:100AD000679566276795902F9F77D794DD24D794E5
:100AE0008E2F8695492F462B582F5D29B701CA01B5
:100AF0001F910F91FF90EF90DF900895FC01DB01B3
:100B0000408151812281622F6F7770E0221F22275E
:100B1000221F9381892F880F822B282F30E0991F65
:100B20009927991F11969C93119721153105A9F5C5
:100B3000411551056105710511F482E037C082E865
:100B40009FEF13969C938E9312979A01AB0167E0E7
:100B5000220F331F441F551F6A95D1F783E08C93F2
:100B60000DC0220F331F441F551F12968D919C916B
:100B70001397019713969C938E931297203080E0E1
:100B8000380780E0480780E4580758F314962D93FF
:100B90003D934D935C93179708952F3F310579F45A
:100BA000411551056105710519F484E08C93089590
:100BB00064FF03C081E08C9312C01C9210C02F57B9
:100BC000304013963C932E93129783E08C9387E0EA
:100BD000440F551F661F771F8A95D1F770641496CE
:100BE0004D935D936D937C93179708951F93DC014C
:100BF000FB019C91923008F447C08081823008F458
:100C000043C0943051F411961C91843099F5818140
:100C1000682F70E0611B71093FC0843021F0923071
:100C200031F48230B9F18181882389F12DC0119688
:100C30001C9111978230F1F081811817D9F4129626
:100C40002D913C911397828193818217930794F0A1
:100C500028173907BCF014968D919D910D90BC9189
:100C6000A02D2481358146815781281739074A07ED
:100C70005B0718F4112341F00AC082179307A407F9
:100C8000B50740F4112319F061E070E005C06FEF83
:100C90007FEF02C060E070E0CB011F910895DF9309
:100CA000CF9300D000D0CDB7DEB789836A83898126
:100CB000282F30E03C832B838B819C8181309105F0
:100CC00009F12B813C81223031052CF48B819C81F0
:100CD000009761F03AC02B813C8122303105F1F060
:100CE0008B819C818330910529F12FC08A818823D3
:100CF00021F4EAE3F0E0108228C0EAE3F0E08FEFAD
:100D0000808323C08A81882321F4E7E3F0E0108206
:100D10001CC0E7E3F0E08FEF808317C08A8188234F
:100D200021F4E4E3F0E0108210C0E4E3F0E08FEFA0
:100D300080830BC08A81882321F4E1E3F0E01082F4
:100D400004C0E1E3F0E08FEF80830F900F900F90ED
:100D50000F90CF91DF910895DF93CF9300D000D013
:100D6000CDB7DEB789836A838981282F30E03C8341
:100D70002B838B819C8181309105D1F02B813C812B
:100D8000223031052CF48B819C81009761F01EC0CC
:100D90002B813C812230310581F08B819C81833015
:100DA000910581F013C0EBE3F0E08A8180830EC0EF
:100DB000E8E3F0E08A81808309C0E5E3F0E08A811E
:100DC000808304C0E2E3F0E08A8180830F900F907B
:100DD0000F900F90CF91DF910895DF93CF9300D0C4
:100DE00000D00F92CDB7DEB789836A834B838981A8
:100DF000282F30E03D832C838C819D8181309105AB
:100E000009F459C02C813D81223031052CF48C81AC
:100E10009D81009771F013C12C813D8122303105F5
:100E200009F48BC08C819D818330910509F4C7C082
:100E300006C18B818130A1F4AAE3B0E0EAE3F0E0DF
:100E40008081482F8A81282F30E081E090E0022EB7
:100E500002C0880F991F0A94E2F7842B8C93EFC08D
:100E60008B81882309F0EBC0AAE3B0E0EAE3F0E06D
:100E70008081482F8A81282F30E081E090E002C0F5
:100E8000880F991F2A95E2F7809584238C93ABE312
:100E9000B0E0EBE3F0E08081482F8A81282F30E03A
:100EA00081E090E0022E02C0880F991F0A94E2F7B9
:100EB000842B8C93C4C08B818130A1F4A7E3B0E074
:100EC000E7E3F0E08081482F8A81282F30E081E03D
:100ED00090E0022E02C0880F991F0A94E2F7842B3B
:100EE0008C93ADC08B81882309F0A9C0A7E3B0E043
:100EF000E7E3F0E08081482F8A81282F30E081E00D
:100F000090E002C0880F991F2A95E2F7809584230C
:100F10008C93A8E3B0E0E8E3F0E08081482F8A8179
:100F2000282F30E081E090E0022E02C0880F991F48
:100F30000A94E2F7842B8C9382C08B818130A1F4D8
:100F4000A4E3B0E0E4E3F0E08081482F8A81282F19
:100F500030E081E090E0022E02C0880F991F0A94D1
:100F6000E2F7842B8C936BC08B81882309F067C0D8
:100F7000A4E3B0E0E4E3F0E08081482F8A81282FE9
:100F800030E081E090E002C0880F991F2A95E2F7D7
:100F9000809584238C93A5E3B0E0E5E3F0E08081C5
:100FA000482F8A81282F30E081E090E0022E02C095
:100FB000880F991F0A94E2F7842B8C9340C08B8191
:100FC0008130A1F4A1E3B0E0E1E3F0E08081482FBB
:100FD0008A81282F30E081E090E0022E02C0880F45
:100FE000991F0A94E2F7842B8C9329C08B81882364
:100FF00031F5A1E3B0E0E1E3F0E08081482F8A81A0
:10100000282F30E081E090E002C0880F991F2A95D8
:10101000E2F7809584238C93A2E3B0E0E2E3F0E072
:101020008081482F8A81282F30E081E090E0022ED5
:1010300002C0880F991F0A94E2F7842B8C930F90BB
:101040000F900F900F900F90CF91DF910895DF9345
:10105000CF9300D000D0CDB7DEB789836A83898172
:10106000282F30E03C832B838B819C81813091053C
:10107000D1F02B813C81223031052CF48B819C8175
:10108000009761F01EC02B813C812230310581F038
:101090008B819C818330910581F013C0E9E3F0E0FE
:1010A0008A8180830EC0E6E3F0E08A81808309C0F4
:1010B000E3E3F0E08A81808304C0E0E3F0E08A812A
:1010C00080830F900F900F900F90CF91DF91089534
:1010D000DF93CF9300D000D00F92CDB7DEB78A83D5
:1010E0006B8319828A81282F30E03D832C834C81C9
:1010F0005D814130510559F18C819D81823091058E
:1011000034F42C813D812115310569F05BC04C819F
:101110005D814230510579F18C819D81833091054B
:1011200009F43DC04FC0E9E3F0E080818983898103
:10113000282F30E08B81882F90E0A90102C05595BF
:1011400047958A95E2F7CA01817089833BC0E6E33F
:10115000F0E0808189838981282F30E08B81882F7E
:1011600090E0A90102C0559547958A95E2F7CA011A
:101170008170898327C0E3E3F0E0808189838981DE
:10118000282F30E08B81882F90E0A90102C055956F
:1011900047958A95E2F7CA018170898313C0E0E31D
:1011A000F0E0808189838981282F30E08B81882F2E
:1011B00090E0A90102C0559547958A95E2F7CA01CA
:1011C0008170898389810F900F900F900F900F90FD
:1011D000CF91DF910895DF93CF9300D000D00F928D
:1011E000CDB7DEB789836A834B838981282F30E0AE
:1011F0003D832C838C819D818130910509F447C00A
:101200002C813D81223031052CF48C819D81009709
:1012100071F0CBC02C813D812230310509F467C0CB
:101220008C819D818330910509F491C0BEC08B8172
:101230008130A1F4ABE3B0E0EBE3F0E08081482F34
:101240008A81282F30E081E090E0022E02C0880FD2
:10125000991F0A94E2F7842B8C93A7C08B81882373
:1012600009F0A3C0ABE3B0E0EBE3F0E08081482FEE
:101270008A81282F30E081E090E0022E02C0880FA2
:10128000991F0A94E2F7809584238C938EC08B81FA
:101290008130A1F4A8E3B0E0E8E3F0E08081482FDA
:1012A0008A81282F30E081E090E0022E02C0880F72
:1012B000991F0A94E2F7842B8C9377C08B81882343
:1012C00009F073C0A8E3B0E0E8E3F0E08081482FC4
:1012D0008A81282F30E081E090E0022E02C0880F42
:1012E000991F0A94E2F7809584238C935EC08B81CA
:1012F0008130A1F4A5E3B0E0E5E3F0E08081482F80
:101300008A81282F30E081E090E0022E02C0880F11
:10131000991F0A94E2F7842B8C9347C08B81882312
:1013200009F043C0A5E3B0E0E5E3F0E08081482F99
:101330008A81282F30E081E090E0022E02C0880FE1
:10134000991F0A94E2F7809584238C932EC08B8199
:101350008130A1F4A2E3B0E0E2E3F0E08081482F25
:101360008A81282F30E081E090E0022E02C0880FB1
:10137000991F0A94E2F7842B8C9317C08B818823E2
:10138000A1F4A2E3B0E0E2E3F0E08081482F8A819B
:10139000282F30E081E090E0022E02C0880F991FD4
:1013A0000A94E2F7809584238C930F900F900F900E
:1013B0000F900F90CF91DF910895DF93CF9300D0DE
:1013C00000D00F92CDB7DEB789836A834B838981C2
:1013D000282F30E03D832C838C819D8181309105C5
:1013E00009F447C02C813D81223031052CF48C81D9
:1013F0009D81009771F0CBC02C813D812230310559
:1014000009F467C08C819D818330910509F491C0F6
:10141000BEC08B818130A1F4A9E3B0E0E9E3F0E044
:101420008081482F8A81282F30E081E090E0022ED1
:1014300002C0880F991F0A94E2F7842B8C93A7C0EF
:101440008B81882309F0A3C0A9E3B0E0E9E3F0E0D1
:101450008081482F8A81282F30E081E090E0022EA1
:1014600002C0880F991F0A94E2F7809584238C9319
:101470008EC08B818130A1F4A6E3B0E0E6E3F0E01A
:101480008081482F8A81282F30E081E090E0022E71
:1014900002C0880F991F0A94E2F7842B8C9377C0BF
:1014A0008B81882309F073C0A6E3B0E0E6E3F0E0A7
:1014B0008081482F8A81282F30E081E090E0022E41
:1014C00002C0880F991F0A94E2F7809584238C93B9
:1014D0005EC08B818130A1F4A3E3B0E0E3E3F0E0F0
:1014E0008081482F8A81282F30E081E090E0022E11
:1014F00002C0880F991F0A94E2F7842B8C9347C08F
:101500008B81882309F043C0A3E3B0E0E3E3F0E07C
:101510008081482F8A81282F30E081E090E0022EE0
:1015200002C0880F991F0A94E2F7809584238C9358
:101530002EC08B818130A1F4A0E3B0E0E0E3F0E0C5
:101540008081482F8A81282F30E081E090E0022EB0
:1015500002C0880F991F0A94E2F7842B8C9317C05E
:101560008B818823A1F4A0E3B0E0E0E3F0E0808188
:10157000482F8A81282F30E081E090E0022E02C0BF
:10158000880F991F0A94E2F7809584238C930F901B
:101590000F900F900F900F90CF91DF910895DF93F0
:1015A000CF9300D000D0CDB7DEB78A8319828A816D
:1015B000282F30E03C832B838B819C8181309105E7
:1015C000D1F02B813C81223031052CF48B819C8120
:1015D000009761F01EC02B813C812230310581F0E3
:1015E0008B819C818330910581F013C0EBE3F0E0A7
:1015F000808189830EC0E8E3F0E08081898309C09F
:10160000E5E3F0E08081898304C0E2E3F0E08081DB
:10161000898389810F900F900F900F90CF91DF9168
:101620000895DF93CF9300D000D0CDB7DEB78A8383
:1016300019828A81282F30E03C832B838B819C8107
:1016400081309105D1F02B813C81223031052CF481
:101650008B819C81009761F01EC02B813C812230E0
:10166000310581F08B819C818330910581F013C01D
:10167000E9E3F0E0808189830EC0E6E3F0E0808159
:10168000898309C0E3E3F0E08081898304C0E0E35B
:10169000F0E08081898389810F900F900F900F90E7
:1016A000CF91DF910895DF93CF9300D000D00F92B8
:1016B000CDB7DEB78A836B8319828A81282F30E009
:1016C0003D832C834C815D814130510559F18C81E2
:1016D0009D818230910534F42C813D8121153105A5
:1016E00069F05BC04C815D814230510579F18C819C
:1016F0009D818330910509F43DC04FC0EBE3F0E0DC
:10170000808189838981282F30E08B81882F90E028
:10171000A90102C0559547958A95E2F7CA018170E3
:1017200089833BC0E8E3F0E0808189838981282FA9
:1017300030E08B81882F90E0A90102C05595479534
:101740008A95E2F7CA018170898327C0E5E3F0E05A
:10175000808189838981282F30E08B81882F90E0D8
:10176000A90102C0559547958A95E2F7CA01817093
:10177000898313C0E2E3F0E0808189838981282F87
:1017800030E08B81882F90E0A90102C055954795E4
:101790008A95E2F7CA018170898389810F900F9041
:1017A0000F900F900F90CF91DF910895DF93CF931B
:1017B000CDB7DEB780E060E040E00E94ED0680E05B
:1017C00061E040E00E94ED0680E062E040E00E94BF
:1017D000ED0680E063E040E00E94ED0680E064E01A
:1017E00041E00E94ED0680E065E041E00E94ED06E8
:1017F00080E066E041E00E94ED0680E067E041E0C5
:101800000E94ED0680E064E040E00E94EB0880E08A
:1018100065E040E00E94EB0880E066E040E00E9466
:10182000EB0880E067E040E00E94EB080E941B0CA0
:10183000CF91DF910895DF93CF93CDB7DEB76D974A
:101840000FB6F894DEBF0FBECDBF80E064E040E08D
:101850000E94EB0880E065E040E00E94EB0880E039
:1018600066E040E00E94EB0880E067E040E00E9414
:10187000EB0880E00E94110B882F90E08F70907031
:101880008F30910511F780E090E0A0EAB1E4898FF4
:101890009A8FAB8FBC8F698D7A8D8B8D9C8D20E05C
:1018A00030E04AEF54E40E941F02DC01CB018D8B33
:1018B0009E8BAF8BB88F6D897E898F89988D20E044
:1018C00030E040E85FE30E94250488232CF481E0A7
:1018D00090E09C8B8B8B3FC06D897E898F89988D22
:1018E00020E03FEF4FE757E40E94C50318164CF580
:1018F000698D7A8D8B8D9C8D20E030E040E251E443
:101900000E941F02DC01CB01BC01CD010E944900F5
:10191000DC01CB019C8B8B8B0FC088EC90E09A8B09
:10192000898B89899A890197F1F79A8B898B8B89A1
:101930009C8901979C8B8B8B8B899C89009769F77D
:1019400014C06D897E898F89988D0E944900DC01C1
:10195000CB019C8B8B8B8B899C89988B8F878F85F8
:1019600098890197F1F7988B8F8780E00E94110B7F
:10197000882F90E08F7090708F30910509F483CF9D
:1019800080E090E0A0EAB1E48B879C87AD87BE87BA
:101990006B857C858D859E8520E030E04AEF54E4A0
:1019A0000E941F02DC01CB018F839887A987BA8729
:1019B0006F81788589859A8520E030E040E85FE393
:1019C0000E94250488232CF481E090E09E838D837F
:1019D0003FC06F81788589859A8520E03FEF4FE78A
:1019E00057E40E94C50318164CF56B857C858D85E0
:1019F0009E8520E030E040E251E40E941F02DC01BD
:101A0000CB01BC01CD010E944900DC01CB019E83CA
:101A10008D830FC088EC90E09C838B838B819C81AD
:101A20000197F1F79C838B838D819E8101979E8323
:101A30008D838D819E81009769F714C06F817885B1
:101A400089859A850E944900DC01CB019E838D83A4
:101A50008D819E819A83898389819A810197F1F78B
:101A60009A83898380E00E94110B882F90E08F7009
:101A700090708F30910509F406CF80E064E040E07B
:101A80000E94EB0880E065E041E00E94EB0880E006
:101A900066E041E00E94EB0880E067E041E00E94E0
:101AA000EB0880E00E94110B882F90E08F709070FF
:101AB0008F30910529F080915C0380935B036CC0AB
:101AC00080E064E041E00E94EB0880E065E040E0F7
:101AD0000E94EB0880E066E041E00E94EB0880E0B5
:101AE00067E041E00E94EB0880E00E94110B882F24
:101AF00090E08F7090708F30910531F080915C0391
:101B00008F5F80935B0348C080E064E041E00E9407
:101B1000EB0880E065E041E00E94EB0880E066E0D1
:101B200040E00E94EB0880E067E041E00E94EB08A3
:101B300080E00E94110B882F90E08F7090708F30A2
:101B4000910531F080915C038E5F80935B0324C02C
:101B500080E064E041E00E94EB0880E065E041E065
:101B60000E94EB0880E066E041E00E94EB0880E024
:101B700067E040E00E94EB0880E00E94110B882F94
:101B800090E08F7090708F30910509F476CF80913E
:101B90005C038D5F80935B0380E00E94110B882FB4
:101BA00090E08F7090708E30910571F480915B039E
:101BB000882F90E0880F991F880F991FFC01E75D1F
:101BC000FC4F808180935D0380E00E94110B882F81
:101BD00090E08F7090708D30910571F480915B036F
:101BE000882F90E0880F991F880F991FFC01E65DF0
:101BF000FC4F808180935D0380E00E94110B882F51
:101C000090E08F7090708B30910579F480915B0338
:101C1000882F90E0880F991F0196880F991FFC016B
:101C2000E75DFC4F808180935D0380E00E94110B93
:101C3000882F90E08F7090708730910571F48091BB
:101C40005B03882F90E0880F991F880F991FFC0174
:101C5000E45DFC4F808180935D0380915C03882F5D
:101C600090E003962CE030E0B9010E94112C880F1F
:101C7000991F880F991FFC01E45DFC4F90818091B2
:101C80005D03981769F480915C03882F90E00496B7
:101C90002CE030E0B9010E94112C80935C03D5CD7B
:101CA0009091560380915D03981721F481E0809311
:101CB0005A03CBCD9091360380915D03981709F5B7
:101CC00080916E03815080936E0380916E03882F04
:101CD00090E0FC01E15AFC4F10820E944F188D8F5A
:101CE0008D8D815860E040E00E94581580E690E0BC
:101CF0000E9435178D8D815860E040E00E94581594
:101D0000A4CD80915C03882F90E003962CE030E016
:101D1000B9010E94112C880F991F0196880F991FF5
:101D2000FC01E75DFC4F908180915D039817F9F409
:101D300081E060E10E9463188091A8038823A1F4E8
:101D40008091AB03882369F01092AB0380915D030F
:101D50006D960FB6F894DEBF0FBECDBFCF91DF9169
:101D600008950E94C20E71CD0E945D0F6ECD8091CC
:101D70005D030E940E1180915D0360E041E00E94CE
:101D8000581563CDDF93CF9300D00F92CDB7DEB758
:101D900080915F03898310926E038981282F30E040
:101DA0003B832A838A819B818433910509F44BC04C
:101DB0002A813B812533310584F48A819B818233DA
:101DC000910549F12A813B812333310584F58A81CC
:101DD0009B818133910599F05EC02A813B81263336
:101DE000310509F444C08A819B8186339105BCF199
:101DF0002A813B812733310509F441C04CC082E67A
:101E000090E00E94351781E30E94F71181E062E0C3
:101E10000E9461174CC088E690E00E94351782E36B
:101E20000E94F71181E062E00E94611740C088E6DD
:101E300090E00E94351783E30E94F71181E062E091
:101E40000E94611734C088E690E00E94351784E351
:101E50000E94F71181E062E00E94611728C08CE6C1
:101E600090E00E94351785E30E94F71120C08DE7AE
:101E700090E00E94351786E30E94F71118C080E9B0
:101E800090E00E94351787E30E94F71181E062E03D
:101E90000E9461170CC08BE990E00E94351781E029
:101EA00060E20E94631881E061E00E9461170F9078
:101EB0000F900F90CF91DF910895DF93CF9300D0D3
:101EC000CDB7DEB78091AA03282F30E03A8329836B
:101ED00089819A818433910509F419C129813A8154
:101EE0002533310594F489819A818233910509F46F
:101EF00082C029813A81233331050CF0C2C0898127
:101F00009A8181339105A1F080C129813A812633DC
:101F1000310509F449C189819A81863391050CF410
:101F20003CC129813A812733310509F444C16DC18F
:101F30008091A6038823A1F482E893E00E9498117F
:101F400081E08093A6038DEA90E00E94351781E13D
:101F500060E20E94631881E062E00E94611746C05F
:101F60008091A5038823A1F486E993E00E9498114B
:101F700081E08093A50382EB90E00E94351781E118
:101F800060E20E94631881E062E00E9461172EC047
:101F90008091A7038823A1F40E942E1180937403DB
:101FA00081E08093A7038AEB90E00E94351781E1DE
:101FB00060E20E94631881E062E00E94611716C02F
:101FC0002091740386E993E042E853E0BA01422F7E
:101FD0000E94C3181092A6031092A7031092A503A3
:101FE00081E160E20E9463180E94CE1110926E039C
:101FF0000E94DE110EC18091A3038823A1F48FE615
:1020000093E00E94981181E08093A30382E690E020
:102010000E94351781E160E20E94631881E062E06E
:102020000E94611729C08091A6038823A1F482E849
:1020300093E00E94981181E08093A6038AEB90E0E0
:102040000E94351781E160E20E94631881E062E03E
:102050000E94611711C08FE693E022E833E0B901D6
:102060000E94E51F1092A3031092A60381E160E293
:102070000E9463180E94CE1110926E030E94DE111E
:10208000C8C08091A3038823A1F48FE693E00E9447
:10209000981181E08093A3038DEA90E00E943517A8
:1020A00081E160E20E94631881E062E00E946117B2
:1020B00029C08091A5038823A1F486E993E00E94BA
:1020C000981181E08093A5038AEB90E00E94351778
:1020D00081E160E20E94631881E062E00E94611782
:1020E00011C08FE693E026E933E0B9010E940D2389
:1020F0001092A3031092A50381E160E20E9463188D
:102100000E94CE1110926E030E94DE1182C0809157
:10211000A3038823A1F48FE693E00E94981181E045
:102120008093A3038DEA90E00E94351781E160E27D
:102130000E94631881E062E00E94611729C08091CB
:10214000A5038823A1F486E993E00E94981181E019
:102150008093A5038AEB90E00E94351781E160E24D
:102160000E94631881E062E00E94611711C08FE64F
:1021700093E026E933E0B9010E94EB271092A30314
:102180001092A50381E160E20E9463180E94CE11C3
:1021900010926E030E94DE113CC00E94FA1C109245
:1021A0006E030E94CE1135C00E94712510926E03FD
:1021B0000E94CE112EC08091A3038823A1F48FE644
:1021C00093E00E94981181E08093A3038AEB90E052
:1021D0000E94351781E160E20E94631881E062E0AD
:1021E0000E9461170DC08FE693E061E00E94B0216C
:1021F0001092A30381E160E20E9463180E94CE1155
:1022000010926E030E94DE1104C00E94DE11109233
:102210006E030F900F90CF91DF910895DF93CF93CE
:102220000F92CDB7DEB7898380916E03882F90E03F
:10223000FC01E15AFC4F8981808380916E038F5F9E
:1022400080936E0380916E03882F90E0FC01E15A29
:10225000FC4F10820F90CF91DF910895DF93CF93C1
:1022600000D000D0CDB7DEB71C8281E08B831A820C
:10227000198218C08C81882321F48C818F5F8C8314
:1022800011C08C818F5F8C838B81882F90E09C01A3
:10229000220F331FC901880F991F880F991F820FC2
:1022A000931F8B838C81882F90E0FC01E15AFC4FB7
:1022B00080818823F9F61C8229C08C81882F90E0C8
:1022C000FC01E15AFC4F808190E3692F0E94F12BC1
:1022D000892F282F30E08B81882F90E0AC01249F3C
:1022E000C001259F900D349F900D11249C01898180
:1022F0009A81820F931F9A8389838B819AE0692F39
:102300000E94F12B8B838C8181508C838C81882F50
:1023100090E0FC01E15AFC4F8081882371F68981AD
:102320009A810F900F900F900F90CF91DF910895A9
:10233000DF93CF9300D00F92CDB7DEB79B838A8314
:102340001982198213C08981282F30E08A819B81EC
:10235000DC01A20FB31F8981882F90E0FC01E15AB4
:10236000FC4F80818C9389818F5F89838981882F3D
:1023700090E0FC01E15AFC4F8081882321F789819C
:10238000282F30E08A819B81FC01E20FF31F10822D
:102390000F900F900F90CF91DF910895DF93CF931F
:1023A000CDB7DEB71092AA031092A8030E94DE11E7
:1023B00081E08093AB03CF91DF910895DF93CF93BA
:1023C0000F92CDB7DEB719820BC08981882F90E0BC
:1023D000FC01E15AFC4F80E3808389818F5F898310
:1023E00089818F3090F30F90CF91DF910895DF9323
:1023F000CF930F92CDB7DEB7898381E160E20E946F
:10240000631889818093AA0381E08093A8030F90C9
:10241000CF91DF9108950F931F93DF93CF93CDB7A3
:10242000DEB7C655D0400FB6F894DEBF0FBECDBFA5
:1024300082E061E00E944F0683E061E00E944F0667
:1024400083E060E040E00E94EB0883E061E040E070
:102450000E94EB0888E360E040E00E945815FE010E
:10246000ED5AFF4F80E090E0A0E3B1E480839183D8
:10247000A283B3838E01015B1F4FFE01ED5AFF4F14
:1024800060817181828193812BEA3AEA4AE250E4C9
:102490000E941F02DC01CB01F80180839183A2839B
:1024A000B383FE01E15BFF4F608171818281938183
:1024B00020E030E040E85FE30E942504882334F404
:1024C000FE01E25BFF4F81E08083E0C0FE01E15B43
:1024D000FF4F608171818281938120E030E04FE77E
:1024E00053E40E94C50318160CF0C0C0FE01ED5A5B
:1024F000FF4F608171818281938120E030E04AE763
:1025000054E40E941903DC01CB01FE01E65BFF4F9E
:1025100080839183A283B3838E010A5B1F4FFE01E8
:10252000E65BFF4F608171818281938120E030E022
:102530004AEF54E40E941F02DC01CB01F8018083C2
:102540009183A283B383FE01EA5BFF4F60817181B7
:102550008281938120E030E040E85FE30E9425041F
:10256000882344F4FE01EC5BFF4F81E090E091830F
:10257000808364C0FE01EA5BFF4F608171818281CC
:10258000938120E03FEF4FE757E40E94C503181600
:102590000CF043C0FE01E65BFF4F608171818281D8
:1025A000938120E030E040E251E40E941F02DC0110
:1025B000CB018E010C5B1F4FBC01CD010E94490075
:1025C000DC01CB01F801918380831FC0FE01EE5B2B
:1025D000FF4F88EC90E091838083FE01EE5BFF4F1C
:1025E000808191810197F1F7FE01EE5BFF4F9183AE
:1025F0008083DE01AC5BBF4FFE01EC5BFF4F80814F
:102600009181019711969C938E93FE01EC5BFF4F95
:10261000808191810097D1F642C08E010C5B1F4FE3
:10262000FE01EA5BFF4F60817181828193810E948C
:102630004900DC01CB01F80191838083DE01A05CBD
:10264000BF4FFE01EC5BFF4F8081918111969C93FF
:102650008E93FE01E05CFF4F808191810197F1F73D
:10266000FE01E05CFF4F9183808319C08E01025B05
:102670001F4FFE01E15BFF4F608171818281938179
:102680000E944900DC01CB01F8018083FE01E25B7E
:10269000FF4F80818FAF8FAD8A95F1F78FAF8CE0C0
:1026A00060E040E00E94581580E090E0A0E3B1E4D3
:1026B0008BAF9CAFADAFBEAF6BAD7CAD8DAD9EAD06
:1026C0002BEA3AEA4AE250E40E941F02DC01CB0105
:1026D0008FAB98AFA9AFBAAF6FA978AD89AD9AADFE
:1026E00020E030E040E85FE30E94250488231CF4EA
:1026F00081E08EAB91C06FA978AD89AD9AAD20E035
:1027000030E04FE753E40E94C50318160CF07BC07D
:102710006BAD7CAD8DAD9EAD20E030E04AE754E47A
:102720000E941903DC01CB018AAB9BABACABBDAB08
:102730006AA97BA98CA99DA920E030E04AEF54E466
:102740000E941F02DC01CB018EA79FA7A8ABB9ABEB
:102750006EA57FA588A999A920E030E040E85FE355
:102760000E94250488232CF481E090E09DA78CA78B
:102770003FC06EA57FA588A999A920E03FEF4FE74C
:1027800057E40E94C50318164CF56AA97BA98CA9C9
:102790009DA920E030E040E251E40E941F02DC01EC
:1027A000CB01BC01CD010E944900DC01CB019DA7FA
:1027B0008CA70FC088EC90E09BA78AA78AA59BA551
:1027C0000197F1F79BA78AA78CA59DA501979DA7C7
:1027D0008CA78CA59DA5009769F724C06EA57FA541
:1027E00088A999A90E944900DC01CB019DA78CA76B
:1027F0008CA59DA599A788A788A599A50197F1F70C
:1028000099A788A70FC06FA978AD89AD9AAD0E942E
:102810004900DC01CB018EAB8EA98FA38FA18A95D5
:10282000F1F78FA381E060E040E00E94581580E05E
:1028300090E0A0E0B0E48BA39CA3ADA3BEA36BA1EA
:102840007CA18DA19EA120E030E04AEF54E40E94DB
:102850001F02DC01CB018F8F98A3A9A3BAA36F8DB0
:1028600078A189A19AA120E030E040E85FE30E94CE
:10287000250488232CF481E090E09E8F8D8F3FC04B
:102880006F8D78A189A19AA120E03FEF4FE757E42F
:102890000E94C50318164CF56BA17CA18DA19EA1C9
:1028A00020E030E040E251E40E941F02DC01CB0155
:1028B000BC01CD010E944900DC01CB019E8F8D8FB0
:1028C0000FC088EC90E09C8F8B8F8B8D9C8D019737
:1028D000F1F79C8F8B8F8D8D9E8D01979E8F8D8FA5
:1028E0008D8D9E8D009769F714C06F8D78A189A199
:1028F0009AA10E944900DC01CB019E8F8D8F8D8DA6
:102900009E8D9A8F898F898D9A8D0197F1F79A8F75
:10291000898F86E060E040E00E94581580E090E0FA
:10292000A0E3B1E48D8B9E8BAF8BB88F6D897E89D0
:102930008F89988D2BEA3AEA4AE250E40E941F02FE
:10294000DC01CB01898B9A8BAB8BBC8B69897A8933
:102950008B899C8920E030E040E85FE30E942504F9
:1029600088231CF481E0888B91C069897A898B89DE
:102970009C8920E030E04FE753E40E94C50318161D
:102980000CF07BC06D897E898F89988D20E030E0C6
:102990004AE754E40E941903DC01CB018C879D8730
:1029A000AE87BF876C857D858E859F8520E030E072
:1029B0004AEF54E40E941F02DC01CB01888799870B
:1029C000AA87BB87688579858A859B8520E030E06A
:1029D00040E85FE30E94250488232CF481E090E026
:1029E0009F838E833FC0688579858A859B8520E09B
:1029F0003FEF4FE757E40E94C50318164CF56C856E
:102A00007D858E859F8520E030E040E251E40E9484
:102A10001F02DC01CB01BC01CD010E944900DC0199
:102A2000CB019F838E830FC088EC90E09D838C83C5
:102A30008C819D810197F1F79D838C838E819F818D
:102A400001979F838E838E819F81009769F724C0B1
:102A5000688579858A859B850E944900DC01CB01C8
:102A60009F838E838E819F819B838A838A819B81B2
:102A70000197F1F79B838A830FC069897A898B89D3
:102A80009C890E944900DC01CB01888B888989835D
:102A900089818A95F1F78983CA5ADF4F0FB6F89476
:102AA000DEBF0FBECDBFCF91DF911F910F91089573
:102AB000DF93CF93CDB7DEB7E3970FB6F894DEBFC1
:102AC0000FBECDBF89AB6AAB4BAB8BA9882331F46A
:102AD00083E060E040E00E94EB0805C083E060E036
:102AE00041E00E94EB088AA9882351F483E061E069
:102AF00040E00E94EB0882E069A90E94AC0609C090
:102B000083E061E041E00E94EB0882E060E00E9427
:102B10004F0683E062E041E00E94EB0880E090E035
:102B2000A0E2B1E48DA79EA7AFA7B8AB6DA57EA527
:102B30008FA598A92BEA3AEA4AE250E40E941F02C4
:102B4000DC01CB0189A79AA7ABA7BCA769A57AA589
:102B50008BA59CA520E030E040E85FE30E942504BF
:102B600088231CF481E088A791C069A57AA58BA56C
:102B70009CA520E030E04FE753E40E94C5031816FF
:102B80000CF07BC06DA57EA58FA598A920E030E054
:102B90004AE754E40E941903DC01CB018CA39DA3F6
:102BA000AEA3BFA36CA17DA18EA19FA120E030E0C8
:102BB0004AEF54E40E941F02DC01CB0188A399A3D1
:102BC000AAA3BBA368A179A18AA19BA120E030E0C0
:102BD00040E85FE30E94250488232CF481E090E024
:102BE0009F8F8E8F3FC068A179A18AA19BA120E011
:102BF0003FEF4FE757E40E94C50318164CF56CA150
:102C00007DA18EA19FA120E030E040E251E40E942E
:102C10001F02DC01CB01BC01CD010E944900DC0197
:102C2000CB019F8F8E8F0FC088EC90E09D8F8C8F93
:102C30008C8D9D8D0197F1F79D8F8C8F8E8D9F8D43
:102C400001979F8F8E8F8E8D9F8D009769F724C07F
:102C500068A179A18AA19BA10E944900DC01CB0156
:102C60009F8F8E8F8E8D9F8D9B8F8A8F8A8D9B8D50
:102C70000197F1F79B8F8A8F0FC069A57AA58BA565
:102C80009CA50E944900DC01CB0188A788A5898FFB
:102C9000898D8A95F1F7898F8AA9882329F082E0A6
:102CA0000E94110B8093AF0383E062E040E00E943A
:102CB000EB0880E090E0A0E2B1E48D8B9E8BAF8BBF
:102CC000B88F6D897E898F89988D2BEA3AEA4AE21E
:102CD00050E40E941F02DC01CB01898B9A8BAB8BE5
:102CE000BC8B69897A898B899C8920E030E040E837
:102CF0005FE30E94250488231CF481E0888B91C047
:102D000069897A898B899C8920E030E04FE753E418
:102D10000E94C50318160CF07BC06D897E898F89CF
:102D2000988D20E030E04AE754E40E941903DC016A
:102D3000CB018C879D87AE87BF876C857D858E850F
:102D40009F8520E030E04AEF54E40E941F02DC013E
:102D5000CB0188879987AA87BB87688579858A850B
:102D60009B8520E030E040E85FE30E942504882353
:102D70002CF481E090E09F838E833FC06885798545
:102D80008A859B8520E03FEF4FE757E40E94C5030B
:102D900018164CF56C857D858E859F8520E030E08A
:102DA00040E251E40E941F02DC01CB01BC01CD01D5
:102DB0000E944900DC01CB019F838E830FC088EC09
:102DC00090E09D838C838C819D810197F1F79D8399
:102DD0008C838E819F8101979F838E838E819F81BB
:102DE000009769F724C0688579858A859B850E944C
:102DF0004900DC01CB019F838E838E819F819B8361
:102E00008A838A819B810197F1F79B838A830FC014
:102E100069897A898B899C890E944900DC01CB01F0
:102E2000888B8889898389818A95F1F7898382E0F3
:102E300061E00E944F06E3960FB6F894DEBF0FBE26
:102E4000CDBFCF91DF910895DF93CF9300D0CDB761
:102E5000DEB79A838983898160E041E00E9458153A
:102E60000F900F90CF91DF910895DF93CF9300D013
:102E70000F92CDB7DEB79B838A83198210C08981F8
:102E8000282F30E08A819B81FC01E20FF31F8081B3
:102E9000882F90E00E94241789818F5F8983898120
:102EA000282F30E08A819B81FC01E20FF31F808193
:102EB000882329F789810F900F900F90CF91DF9190
:102EC0000895DF93CF93CDB7DEB76D970FB6F89423
:102ED000DEBF0FBECDBF8C8F6D8F1A8E80E48B8FBF
:102EE0008D8D882F90E09C0121503040CE014A9674
:102EF000FC01E20FF31F90818C8D890F8150898F27
:102F0000898D8058898F898D60E040E00E94581536
:102F100080E090E0A0EAB1E48D8B9E8BAF8BB88F00
:102F20006D897E898F89988D2BEA3AEA4AE250E4CE
:102F30000E941F02DC01CB01898B9A8BAB8BBC8B6F
:102F400069897A898B899C8920E030E040E85FE3D9
:102F50000E94250488231CF481E0888B91C0698934
:102F60007A898B899C8920E030E04FE753E40E9406
:102F7000C50318160CF07BC06D897E898F89988DEA
:102F800020E030E04AE754E40E941903DC01CB0161
:102F90008C879D87AE87BF876C857D858E859F8555
:102FA00020E030E04AEF54E40E941F02DC01CB0134
:102FB00088879987AA87BB87688579858A859B8555
:102FC00020E030E040E85FE30E94250488232CF4F1
:102FD00081E090E09F838E833FC0688579858A85F4
:102FE0009B8520E03FEF4FE757E40E94C50318168A
:102FF0004CF56C857D858E859F8520E030E040E234
:1030000051E40E941F02DC01CB01BC01CD010E94F2
:103010004900DC01CB019F838E830FC088EC90E0D8
:103020009D838C838C819D810197F1F79D838C8397
:103030008E819F8101979F838E838E819F810097D0
:1030400069F724C0688579858A859B850E94490037
:10305000DC01CB019F838E838E819F819B838A833A
:103060008A819B810197F1F79B838A830FC06989CD
:103070007A898B899C890E944900DC01CB01888B6D
:103080008889898389818A95F1F789836D960FB63E
:10309000F894DEBF0FBECDBFCF91DF910895DF93CF
:1030A000CF930F92CDB7DEB7198280E061E040E0A8
:1030B0000E9458158091AF038F77898389810F9083
:1030C000CF91DF910895DF93CF9300D0CDB7DEB7D6
:1030D00089836A83898161E00E94611714C08981B4
:1030E000813148F081E08983898162E00E94611723
:1030F0008A8180518A8380E260E041E00E94581515
:1031000089818F5F898399818A81891740F781E05E
:1031100061E00E9461170F900F90CF91DF910895A9
:10312000DF93CF93CDB7DEB788E090E00E945B2CB1
:103130009093B7038093B603E091B603F091B70381
:1031400011821082E091B603F091B70317821682C4
:10315000E091B603F091B7031282E091B603F091CB
:10316000B70314821382E091B603F091B70315827E
:103170008091B6039091B7039093B9038093B803FD
:10318000CF91DF910895DF93CF93CDB7DEB76B97E3
:103190000FB6F894DEBF0FBECDBF988F8F8B7A8F9E
:1031A000698F4B8F1E8A1D8A1C8A1B8A1A8A198A6C
:1031B0008091B6039091B7039093B9038093B803BD
:1031C00088E090E00E945B2C988B8F878091B00301
:1031D0008F5F8093B0038091B2038F5F8093B203BF
:1031E00005C08D899E8901969E8B8D8B2D893E8988
:1031F000898D9A8DFC01E20FF31F8081882389F766
:1032000005C08B899C8901969C8B8B8B2B893C8973
:103210008F89988DFC01E20FF31F8081882389F745
:103220008D899E8901960E945B2CEF85F889918398
:1032300080838B899C8901960E945B2CEF85F8899D
:1032400094838383E091B803F091B90386819781D9
:10325000EF85F889978386838091B203EF85F8899B
:103260008283EF85F8898B8D85831A8A198A17C026
:10327000EF85F8892081318189899A89D901A80F40
:10328000B91F29893A89898D9A8DFC01E20FF31FB4
:1032900080818C9389899A8901969A8B898B298957
:1032A0003A898D899E892817390714F3EF85F889A3
:1032B0002081318189899A89F901E80FF91F1082EB
:1032C0001A8A198A17C0EF85F88923813481898980
:1032D0009A89D901A80FB91F29893A898F89988DB0
:1032E000FC01E20FF31F80818C9389899A890196F2
:1032F0009A8B898B29893A898B899C892817390768
:1033000014F3EF85F8892381348189899A89F90139
:10331000E80FF91F1082E091B803F091B9038F858F
:1033200098899783868382EC90E00E94351780E02D
:1033300090E0AAEFB3E48B879C87AD87BE876B854F
:103340007C858D859E8520E030E04AEF54E40E9424
:103350001F02DC01CB018F839887A987BA876F8111
:10336000788589859A8520E030E040E85FE30E9417
:10337000250488232CF481E090E09E838D833FC058
:103380006F81788589859A8520E03FEF4FE757E484
:103390000E94C50318164CF56B857C858D859E852E
:1033A00020E030E040E251E40E941F02DC01CB014A
:1033B000BC01CD010E944900DC01CB019E838D83BD
:1033C0000FC088EC90E09C838B838B819C8101975C
:1033D000F1F79C838B838D819E8101979E838D83E2
:1033E0008D819E81009769F714C06F8178858985EA
:1033F0009A850E944900DC01CB019E838D838D81DB
:103400009E819A83898389819A810197F1F79A83B2
:10341000898381E060E20E94631881E06B960FB6B9
:10342000F894DEBF0FBECDBFCF91DF910895DF933B
:10343000CF9300D0CDB7DEB71A821982E091B803DE
:10344000F091B903868197810097C1F08091B8030C
:103450009091B9039A838983E091B803F091B903FD
:10346000868197819093B9038093B8030E94171ABD
:1034700089819A819093B9038093B8038091B803AE
:103480009091B9030E94082D1092B00380E00F9034
:103490000F90CF91DF910895DF93CF93CDB7DEB733
:1034A0000E94591A0E94171A0E949018CF91DF911A
:1034B0000895DF93CF93CDB7DEB78091B603909197
:1034C000B7039093B9038093B803CF91DF91089528
:1034D000DF93CF93CDB7DEB7EF970FB6F894DEBF8B
:1034E0000FBECDBF9DAF8CAF6EAFE091B603F09134
:1034F000B703868197819093B9038093B8031BAE7D
:1035000081E090E09AAF89AFC8C1E091B803F09133
:10351000B903238134818CAD9DADB9010E940E1F8A
:10352000882349F4E091B803F091B90392818EADFC
:10353000981709F0A3C181E08BAF8091B8039091F7
:10354000B9039093BB038093BA0381E060E20E94C9
:10355000631881ED90E00E94351781E062E00E94DF
:1035600061178EED90E00E94351780E090E0AAEFA1
:10357000B3E48DAB9EABAFABB8AF6DA97EA98FA9FD
:1035800098AD20E030E04AEF54E40E941F02DC01D5
:10359000CB0189AB9AABABABBCAB69A97AA98BA9C0
:1035A0009CA920E030E040E85FE30E9425048823E6
:1035B0002CF481E090E098AB8FA73FC069A97AA96D
:1035C0008BA99CA920E03FEF4FE757E40E94C50379
:1035D00018164CF56DA97EA98FA998AD20E030E0B2
:1035E00040E251E40E941F02DC01CB01BC01CD018D
:1035F0000E944900DC01CB0198AB8FA70FC088EC7B
:1036000090E09EA78DA78DA59EA50197F1F79EA797
:103610008DA78FA598A9019798AB8FA78FA598A97B
:10362000009769F714C069A97AA98BA99CA90E947F
:103630004900DC01CB0198AB8FA78FA598A99CA767
:103640008BA78BA59CA50197F1F79CA78BA781E081
:1036500060E20E94631886EE90E00E94351781E0D8
:1036600062E00E946117E091B803F091B903808194
:1036700091810E94351780E090E0AAEFB4E48FA317
:1036800098A7A9A7BAA76FA178A589A59AA520E0B0
:1036900030E04AEF54E40E941F02DC01CB018BA30F
:1036A0009CA3ADA3BEA36BA17CA18DA19EA120E094
:1036B00030E040E85FE30E94250488232CF481E099
:1036C00090E09AA389A33FC06BA17CA18DA19EA18C
:1036D00020E03FEF4FE757E40E94C50318164CF572
:1036E0006FA178A589A59AA520E030E040E251E4D9
:1036F0000E941F02DC01CB01BC01CD010E944900E8
:10370000DC01CB019AA389A30FC088EC90E098A3B9
:103710008F8F8F8D98A10197F1F798A38F8F89A133
:103720009AA101979AA389A389A19AA1009769F701
:1037300014C06BA17CA18DA19EA10E944900DC0157
:10374000CB019AA389A389A19AA19E8F8D8F8D8D7C
:103750009E8D0197F1F79E8F8D8F81E060E20E9430
:1037600063188CEE90E00E94351781E062E00E94C1
:103770006117E091B803F091B903838194810E94AD
:10378000351780E090E0AAEFB4E4898F9A8FAB8F71
:10379000BC8F698D7A8D8B8D9C8D20E030E04AEF57
:1037A00054E40E941F02DC01CB018D8B9E8BAF8BFA
:1037B000B88F6D897E898F89988D20E030E040E850
:1037C0005FE30E94250488232CF481E090E09C8B29
:1037D0008B8B3FC06D897E898F89988D20E03FEF6C
:1037E0004FE757E40E94C50318164CF5698D7A8D92
:1037F0008B8D9C8D20E030E040E251E40E941F025E
:10380000DC01CB01BC01CD010E944900DC01CB01F0
:103810009C8B8B8B0FC088EC90E09A8B898B89896D
:103820009A890197F1F79A8B898B8B899C890197EB
:103830009C8B8B8B8B899C89009769F714C06D8951
:103840007E898F89988D0E944900DC01CB019C8B79
:103850008B8B8B899C89988B8F878F859889019713
:10386000F1F7988B8F8781E060E20E946318E09106
:10387000B803F091B90382818FAFB2C0E091B80371
:10388000F091B903868197819093B9038093B8032F
:1038900089AD9AAD01969AAF89AF8091B003282F78
:1038A000332727FD309589AD9AAD281739070CF0DD
:1038B0002CCE8BAD91E08927882309F488C081E064
:1038C00061E00E94611782EF90E00E94351780E06E
:1038D00090E0AAEFB4E48B879C87AD87BE876B85A9
:1038E0007C858D859E8520E030E04AEF54E40E947F
:1038F0001F02DC01CB018F839887A987BA876F816C
:10390000788589859A8520E030E040E85FE30E9471
:10391000250488232CF481E090E09E838D833FC0B2
:103920006F81788589859A8520E03FEF4FE757E4DE
:103930000E94C50318164CF56B857C858D859E8588
:1039400020E030E040E251E40E941F02DC01CB01A4
:10395000BC01CD010E944900DC01CB019E838D8317
:103960000FC088EC90E09C838B838B819C810197B6
:10397000F1F79C838B838D819E8101979E838D833C
:103980008D819E81009769F714C06F817885898544
:103990009A850E944900DC01CB019E838D838D8135
:1039A0009E819A83898389819A810197F1F79A830D
:1039B000898381E060E20E9463188091B603909150
:1039C000B7039093B9038093B8031FAE09C08091E9
:1039D000B6039091B7039093B9038093B8031FAED9
:1039E0008FADEF960FB6F894DEBF0FBECDBFCF916F
:1039F000DF910895DF93CF93CDB7DEB7AB970FB6C6
:103A0000F894DEBF0FBECDBF81E060E20E94631874
:103A1000E091B603F091B703868197819093B90343
:103A20008093B8038091B8039091B903009709F08F
:103A300080C080E091E00E94351780E090E0AAE726
:103A4000B4E48FA398A7A9A7BAA76FA178A589A561
:103A50009AA520E030E04AEF54E40E941F02DC0106
:103A6000CB018BA39CA3ADA3BEA36BA17CA18DA115
:103A70009EA120E030E040E85FE30E942504882317
:103A80002CF481E090E09AA389A33FC06BA17CA1B4
:103A90008DA19EA120E03FEF4FE757E40E94C503B0
:103AA00018164CF56FA178A589A59AA520E030E0FD
:103AB00040E251E40E941F02DC01CB01BC01CD01B8
:103AC0000E944900DC01CB019AA389A30FC088ECB6
:103AD00090E098A38F8F8F8D98A10197F1F798A30D
:103AE0008F8F89A19AA101979AA389A389A19AA1ED
:103AF000009769F714C06BA17CA18DA19EA10E94C3
:103B00004900DC01CB019AA389A389A19AA19E8FC8
:103B10008D8F8D8D9E8D0197F1F79E8F8D8F80916A
:103B2000B6039091B7039093B9038093B8031BA693
:103B300034C181E062E00E946117E091B803F09126
:103B4000B903838194810E94351781E061E00E946E
:103B5000611789E091E00E943517E091B803F09178
:103B6000B903808191810E94351780E090E0AAE737
:103B7000B4E4898F9A8FAB8FBC8F698D7A8D8B8DD2
:103B80009C8D20E030E04AEF54E40E941F02DC01EB
:103B9000CB018D8B9E8BAF8BB88F6D897E898F8982
:103BA000988D20E030E040E85FE30E942504882300
:103BB0002CF481E090E09C8B8B8B3FC06D897E89DB
:103BC0008F89988D20E03FEF4FE757E40E94C503AF
:103BD00018164CF5698D7A8D8B8D9C8D20E030E028
:103BE00040E251E40E941F02DC01CB01BC01CD0187
:103BF0000E944900DC01CB019C8B8B8B0FC088ECB1
:103C000090E09A8B898B89899A890197F1F79A8B31
:103C1000898B8B899C8901979C8B8B8B8B899C8949
:103C2000009769F714C06D897E898F89988D0E94ED
:103C30004900DC01CB019C8B8B8B8B899C89988BF9
:103C40008F878F8598890197F1F7988B8F8781E10E
:103C500060E20E94631881E062E00E9461178BE0DD
:103C600091E00E943517E091B803F091B903858186
:103C7000882F90E00E94412A80E090E0AAE7B4E417
:103C80008B879C87AD87BE876B857C858D859E8560
:103C900020E030E04AEF54E40E941F02DC01CB0137
:103CA0008F839887A987BA876F81788589859A8558
:103CB00020E030E040E85FE30E94250488232CF4F4
:103CC00081E090E09E838D833FC06F8178858985F8
:103CD0009A8520E03FEF4FE757E40E94C50318168E
:103CE0004CF56B857C858D859E8520E030E040E23B
:103CF00051E40E941F02DC01CB01BC01CD010E94F6
:103D00004900DC01CB019E838D830FC088EC90E0DD
:103D10009C838B838B819C810197F1F79C838B83A0
:103D20008D819E8101979E838D838D819E810097D9
:103D300069F714C06F81788589859A850E9449004A
:103D4000DC01CB019E838D838D819E819A83898343
:103D500089819A810197F1F79A83898381E060E2F2
:103D60000E946318E091B803F091B90386819781AE
:103D70009093B9038093B8038091B8039091B903ED
:103D8000009709F0D6CE8091B6039091B703909337
:103D9000B9038093B80381E08BA78BA5AB960FB6D0
:103DA000F894DEBF0FBECDBFCF91DF910895DF93B2
:103DB000CF930F92CDB7DEB7E091BA03F091BB037A
:103DC0008581882381F0A091BA03B091BB03E09173
:103DD000BA03F091BB038581815015968C9315979A
:103DE00081E0898301C0198289810F90CF91DF9191
:103DF0000895DF93CF93CDB7DEB7A091BA03B0910A
:103E0000BB03E091BA03F091BB0385818F5F1596E8
:103E10008C93159781E0CF91DF910895DF93CF9335
:103E2000CDB7DEB727970FB6F894DEBF0FBECDBF74
:103E30009C838B837E836D831A828B819C812D81F1
:103E40003E81B9010E945C1F8A838A81882349F1DF
:103E5000198219C08981282F30E08B819C81FC0157
:103E6000E20FF31F40818981282F30E08D819E81F0
:103E7000FC01E20FF31F8081481711F01F8212C06E
:103E800089818F5F89838981282F30E08B819C8194
:103E9000FC01E20FF31F80818823E1F681E08F832C
:103EA00001C01F828F8127960FB6F894DEBF0FBE28
:103EB000CDBFCF91DF910895DF93CF93CDB7DEB71C
:103EC00027970FB6F894DEBF0FBECDBF9C838B83C0
:103ED0007E836D831A82198203C08A818F5F8A83F1
:103EE0008A81282F30E08B819C81FC01E20FF31F37
:103EF0008081882391F703C089818F5F89838981BD
:103F0000282F30E08D819E81FC01E20FF31F80811C
:103F1000882391F799818A81981719F481E08F831A
:103F200001C01F828F8127960FB6F894DEBF0FBEA7
:103F3000CDBFCF91DF910895DF93CF9300D0CDB760
:103F4000DEB78CE090E00E945B2C9093BF038093DF
:103F5000BE03E091BE03F091BF0311821082E09195
:103F6000BE03F091BF0313861286E091BE03F09169
:103F7000BF0314821382E091BE03F091BF0312824B
:103F80001A82198210C02091BE033091BF0389812B
:103F90009A81820F931FFC013596108289819A8144
:103FA00001969A83898389819A81853091055CF392
:103FB0008091BE039091BF039093BD038093BC0397
:103FC0000F900F90CF91DF910895DF93CF93CDB7EE
:103FD000DEB76D970FB6F894DEBF0FBECDBF9A8FD8
:103FE000898F7C8F6B8F188E1F8A1E8A1D8A1C8A70
:103FF0001B8A1A8A198A898D9A8D60E00E94C421D1
:104000009A8B898B89899A89009731F084E191E0B4
:104010000E9435171D8E49C18091BE039091BF0348
:104020009093BD038093BC038CE090E00E945B2CD6
:10403000988B8F878091B3038F5F8093B3038091B8
:10404000B5038F5F8093B50305C08F89988D019666
:10405000988F8F8B2F89388D8B8D9C8DFC01E20F73
:10406000F31F8081882389F78F89988D01960E949C
:104070005B2CEF85F8899183808305C08B899C89AF
:1040800001969C8B8B8B2B893C89898D9A8DFC01A9
:10409000E20FF31F8081882389F78B899C89019621
:1040A0000E945B2CEF85F88994838383E091BC03A5
:1040B000F091BD0382859385EF85F8899387828788
:1040C0008091B503EF85F88982831E8A1D8A17C007
:1040D000EF85F889208131818D899E89D901A80FCA
:1040E000B91F2D893E898B8D9C8DFC01E20FF31F3A
:1040F00080818C938D899E8901969E8B8D8B2D89D5
:104100003E898F89988D2817390714F3EF85F88930
:10411000208131818D899E89F901E80FF91F108274
:104120001E8A1D8A17C0EF85F889238134818D8905
:104130009E89D901A80FB91F2D893E89898D9A8D35
:10414000FC01E20FF31F80818C938D899E8901967B
:104150009E8B8D8B2D893E898B899C8928173907E9
:1041600014F3EF85F889238134818D899E89F901C3
:10417000E80FF91F10821E8A1D8A0EC02D893E8904
:104180008F859889820F931FFC01359610828D8947
:104190009E8901969E8B8D8B8D899E898530910598
:1041A0006CF3E091BC03F091BD038F8598899387F0
:1041B000828785E291E00E94351780E090E0AAEFC7
:1041C000B3E48B879C87AD87BE876B857C858D85A7
:1041D0009E8520E030E04AEF54E40E941F02DC019B
:1041E000CB018F839887A987BA876F817885898566
:1041F0009A8520E030E040E85FE30E9425048823B0
:104200002CF481E090E09E838D833FC06F817885A0
:1042100089859A8520E03FEF4FE757E40E94C50368
:1042200018164CF56B857C858D859E8520E030E0E9
:1042300040E251E40E941F02DC01CB01BC01CD0130
:104240000E944900DC01CB019E838D830FC088EC66
:1042500090E09C838B838B819C810197F1F79C83F9
:104260008B838D819E8101979E838D838D819E811D
:10427000009769F714C06F81788589859A850E94B7
:104280004900DC01CB019E838D838D819E819A83C1
:10429000898389819A810197F1F79A83898381E0E3
:1042A00060E20E94631881E08D8F8D8D6D960FB650
:1042B000F894DEBF0FBECDBFCF91DF910895DF939D
:1042C000CF9300D0CDB7DEB71A821982E091BC033C
:1042D000F091BD03828593850097C1F08091BC0366
:1042E0009091BD039A838983E091BC03F091BD0353
:1042F000828593859093BD038093BC030E945F21C8
:1043000089819A819093BD038093BC038091BC0303
:104310009091BD030E94082D1092B30380E00F908E
:104320000F90CF91DF910895DF93CF93CDB7DEB794
:104330000E94A1210E945F210E949C1FCF91DF91CA
:104340000895DF93CF93CDB7DEB78091BE039091F0
:10435000BF039093BD038093BC03CF91DF91089579
:10436000DF93CF9300D00F92CDB7DEB79A838983C6
:104370006B8389819A816B810E94C4210F900F9079
:104380000F90CF91DF910895DF93CF93CDB7DEB734
:1043900069970FB6F894DEBF0FBECDBF9E8B8D8B95
:1043A0006F8BE091BE03F091BF038285938590935C
:1043B000BD038093BC031C8A1B8A1A8A81E090E0AB
:1043C000998B888BF7C0E091BC03F091BD032381EA
:1043D00034818D899E89B9010E940E1F882309F4BA
:1043E000DAC081E060E20E94631885E391E00E94F8
:1043F0003517E091BC03F091BD03808191810E944B
:10440000351781E062E00E9461178CE391E00E9421
:104410003517E091BC03F091BD03838194810E9424
:10442000351780E090E0AAEFB4E48B879C87AD87D6
:10443000BE876B857C858D859E8520E030E04AEFC8
:1044400054E40E941F02DC01CB018F839887A98767
:10445000BA876F81788589859A8520E030E040E8C9
:104460005FE30E94250488232CF481E090E09E8382
:104470008D833FC06F81788589859A8520E03FEFE5
:104480004FE757E40E94C50318164CF56B857C85F1
:104490008D859E8520E030E040E251E40E941F02BD
:1044A000DC01CB01BC01CD010E944900DC01CB0144
:1044B0009E838D830FC088EC90E09C838B838B81DF
:1044C0009C810197F1F79C838B838D819E8101975D
:1044D0009E838D838D819E81009769F714C06F81C3
:1044E000788589859A850E944900DC01CB019E83ED
:1044F0008D838D819E819A83898389819A81019799
:10450000F1F79A83898381E060E20E9463188F89C2
:104510008823A1F181E061E00E94611781E491E0CC
:104520000E9435171F8627C08F858F5F62E00E942B
:1045300061172091BC033091BD038F85882F90E0D7
:10454000820F931FFC0135968081882389F020918A
:10455000BC033091BD038F85882F90E0820F931F9D
:10456000FC013596208180E090E0622F0E94681A5D
:104570008F858F5F8F878F858530B0F281E060E215
:104580000E94631881E08C8B8091BC039091BD03E5
:10459000998F888F37C0E091BC03F091BD0382856D
:1045A00093859093BD038093BC0388899989019674
:1045B000998B888B8091B303282F332727FD309563
:1045C00088899989281739070CF0FDCE8C8991E0EC
:1045D0008927882359F08091BE039091BF0390935F
:1045E000BD038093BC03198E188E0CC08091BE034E
:1045F0009091BF039093BD038093BC038A899B89EC
:10460000998F888F888D998D69960FB6F894DEBF43
:104610000FBECDBFCF91DF910895DF93CF93CDB77C
:10462000DEB7C254D0400FB6F894DEBF0FBECDBF88
:10463000FE01FF9691838083FE01EF5BFF4F718344
:1046400060831EAE1DAE1CAEFE01FF96808191817F
:1046500060E00E94C4219BAF8AAFFE01EF5BFF4F79
:104660008081918160E00E94681A8DAF8AAD9BAD18
:10467000009729F481E591E00E94351728C28DAD9D
:10468000882309F42AC119AE23C189AD282F30E04F
:104690008AAD9BAD820F931FFC01359680818823E4
:1046A00009F013C10E94D71E8CAF8CAD882309F48A
:1046B00092C089AD282F30E08AAD9BAD820F931F49
:1046C000FC0135968DAD80838BE591E00E94351716
:1046D00081E062E00E9461178EE691E00E9435174A
:1046E00080E090E0AAEFB4E48DAB9EABAFABB8AF87
:1046F0006DA97EA98FA998AD20E030E04AEF54E47F
:104700000E941F02DC01CB0189AB9AABABABBCAB07
:1047100069A97AA98BA99CA920E030E040E85FE371
:104720000E94250488232CF481E090E098AB8FA7A9
:104730003FC069A97AA98BA99CA920E03FEF4FE768
:1047400057E40E94C50318164CF56DA97EA98FA9E0
:1047500098AD20E030E040E251E40E941F02DC010D
:10476000CB01BC01CD010E944900DC01CB0198AB1B
:104770008FA70FC088EC90E09EA78DA78DA59EA562
:104780000197F1F79EA78DA78FA598A9019798ABE0
:104790008FA78FA598A9009769F714C069A97AA96E
:1047A0008BA99CA90E944900DC01CB0198AB8FA783
:1047B0008FA598A99CA78BA78BA59CA50197F1F71E
:1047C0009CA78BA781E060E20E94631881E08EAF16
:1047D00085E089AF7AC08AE791E00E94351780E0D2
:1047E00090E0AAEFB4E48FA398A7A9A7BAA76FA1F6
:1047F00078A589A59AA520E030E04AEF54E40E940C
:104800001F02DC01CB018BA39CA3ADA3BEA36BA1B4
:104810007CA18DA19EA120E030E040E85FE30E94F2
:10482000250488232CF481E090E09AA389A33FC05B
:104830006BA17CA18DA19EA120E03FEF4FE757E443
:104840000E94C50318164CF56FA178A589A59AA5F5
:1048500020E030E040E251E40E941F02DC01CB0185
:10486000BC01CD010E944900DC01CB019AA389A3C0
:104870000FC088EC90E098A38F8F8F8D98A101973F
:10488000F1F798A38F8F89A19AA101979AA389A381
:1048900089A19AA1009769F714C06BA17CA18DA191
:1048A0009EA10E944900DC01CB019AA389A389A1A2
:1048B0009AA19E8F8D8F8D8D9E8D0197F1F79E8F82
:1048C0008D8F81E060E20E94631889AD8F5F89AFB0
:1048D00089AD853008F4D9CE7CC089E891E00E948A
:1048E000351780E090E0AAEFB4E4898F9A8FAB8F00
:1048F000BC8F698D7A8D8B8D9C8D20E030E04AEFE6
:1049000054E40E941F02DC01CB018D8B9E8BAF8B88
:10491000B88F6D897E898F89988D20E030E040E8DE
:104920005FE30E94250488232CF481E090E09C8BB7
:104930008B8B3FC06D897E898F89988D20E03FEFFA
:104940004FE757E40E94C50318164CF5698D7A8D20
:104950008B8D9C8D20E030E040E251E40E941F02EC
:10496000DC01CB01BC01CD010E944900DC01CB017F
:104970009C8B8B8B0FC088EC90E09A8B898B8989FC
:104980009A890197F1F79A8B898B8B899C8901977A
:104990009C8B8B8B8B899C89009769F714C06D89E0
:1049A0007E898F89988D0E944900DC01CB019C8B08
:1049B0008B8B8B899C89988B8F878F8598890197A2
:1049C000F1F7988B8F8781E060E20E94631881E0A5
:1049D0008EAF8EAD882309F07AC086E991E00E94FF
:1049E000351780E090E0AAEFB4E48B879C87AD8711
:1049F000BE876B857C858D859E8520E030E04AEF03
:104A000054E40E941F02DC01CB018F839887A987A1
:104A1000BA876F81788589859A8520E030E040E803
:104A20005FE30E94250488232CF481E090E09E83BC
:104A30008D833FC06F81788589859A8520E03FEF1F
:104A40004FE757E40E94C50318164CF56B857C852B
:104A50008D859E8520E030E040E251E40E941F02F7
:104A6000DC01CB01BC01CD010E944900DC01CB017E
:104A70009E838D830FC088EC90E09C838B838B8119
:104A80009C810197F1F79C838B838D819E81019797
:104A90009E838D838D819E81009769F714C06F81FD
:104AA000788589859A850E944900DC01CB019E8327
:104AB0008D838D819E819A83898389819A810197D3
:104AC000F1F79A83898381E060E20E946318CE5BEC
:104AD000DF4F0FB6F894DEBF0FBECDBFCF91DF9191
:104AE0000895DF93CF93CDB7DEB7EA970FB6F8946A
:104AF000DEBF0FBECDBFE091BE03F091BF03828544
:104B000093859093BD038093BC0381E061E00E9494
:104B1000611780EA91E00E94351781E062E00E940F
:104B200061178091B303992787FD90950E94412AD0
:104B300080E090E0AAE7B4E48DAB9EABAFABB8AF3A
:104B40006DA97EA98FA998AD20E030E04AEF54E42A
:104B50000E941F02DC01CB0189AB9AABABABBCABB3
:104B600069A97AA98BA99CA920E030E040E85FE31D
:104B70000E94250488232CF481E090E098AB8FA755
:104B80003FC069A97AA98BA99CA920E03FEF4FE714
:104B900057E40E94C50318164CF56DA97EA98FA98C
:104BA00098AD20E030E040E251E40E941F02DC01B9
:104BB000CB01BC01CD010E944900DC01CB0198ABC7
:104BC0008FA70FC088EC90E09EA78DA78DA59EA50E
:104BD0000197F1F79EA78DA78FA598A9019798AB8C
:104BE0008FA78FA598A9009769F714C069A97AA91A
:104BF0008BA99CA90E944900DC01CB0198AB8FA72F
:104C00008FA598A99CA78BA78BA59CA50197F1F7C9
:104C10009CA78BA781E060E20E9463188091BC038F
:104C20009091BD03009709F084C081EB91E00E9450
:104C3000351780E090E0AAEFB4E48FA398A7A9A766
:104C4000BAA76FA178A589A59AA520E030E04AEF20
:104C500054E40E941F02DC01CB018BA39CA3ADA3F3
:104C6000BEA36BA17CA18DA19EA120E030E040E815
:104C70005FE30E94250488232CF481E090E09AA34E
:104C800089A33FC06BA17CA18DA19EA120E03FEF35
:104C90004FE757E40E94C50318164CF56FA178A59D
:104CA00089A59AA520E030E040E251E40E941F026D
:104CB000DC01CB01BC01CD010E944900DC01CB012C
:104CC0009AA389A30FC088EC90E098A38F8F8F8D53
:104CD00098A10197F1F798A38F8F89A19AA10197C5
:104CE0009AA389A389A19AA1009769F714C06BA11F
:104CF0007CA18DA19EA10E944900DC01CB019AA359
:104D000089A389A19AA19E8F8D8F8D8D9E8D0197EC
:104D1000F1F79E8F8D8F81E060E20E946318809191
:104D2000BE039091BF039093BD038093BC031AAE62
:104D300048C181E062E00E9461178CEB91E00E9423
:104D40003517E091BC03F091BD03838194810E94EB
:104D5000351781E061E00E94611785EC91E00E94C7
:104D60003517E091BC03F091BD03808191810E94D1
:104D7000351780E090E0AAEFB4E4898F9A8FAB8F6B
:104D8000BC8F698D7A8D8B8D9C8D20E030E04AEF51
:104D900054E40E941F02DC01CB018D8B9E8BAF8BF4
:104DA000B88F6D897E898F89988D20E030E040E84A
:104DB0005FE30E94250488232CF481E090E09C8B23
:104DC0008B8B3FC06D897E898F89988D20E03FEF66
:104DD0004FE757E40E94C50318164CF5698D7A8D8C
:104DE0008B8D9C8D20E030E040E251E40E941F0258
:104DF000DC01CB01BC01CD010E944900DC01CB01EB
:104E00009C8B8B8B0FC088EC90E09A8B898B898967
:104E10009A890197F1F79A8B898B8B899C890197E5
:104E20009C8B8B8B8B899C89009769F714C06D894B
:104E30007E898F89988D0E944900DC01CB019C8B73
:104E40008B8B8B899C89988B8F878F85988901970D
:104E5000F1F7988B8F8781E060E20E94631880ED04
:104E600091E00E94351719AE18C089AD8F5F62E0DE
:104E70000E9461172091BC033091BD0389AD882F3A
:104E800090E0820F931FFC0135968081882F90E07F
:104E90000E94412A89AD8F5F89AF89AD853028F3A3
:104EA00080E090E0AAEFB4E48B879C87AD87BE8753
:104EB0006B857C858D859E8520E030E04AEF54E44B
:104EC0000E941F02DC01CB018F839887A987BA87D4
:104ED0006F81788589859A8520E030E040E85FE33E
:104EE0000E94250488232CF481E090E09E838D832A
:104EF0003FC06F81788589859A8520E03FEF4FE735
:104F000057E40E94C50318164CF56B857C858D858A
:104F10009E8520E030E040E251E40E941F02DC0167
:104F2000CB01BC01CD010E944900DC01CB019E8375
:104F30008D830FC088EC90E09C838B838B819C8158
:104F40000197F1F79C838B838D819E8101979E83CE
:104F50008D838D819E81009769F714C06F8178855C
:104F600089859A850E944900DC01CB019E838D834F
:104F70008D819E819A83898389819A810197F1F736
:104F80009A83898381E060E20E946318E091BC0308
:104F9000F091BD03828593859093BD038093BC03FC
:104FA0008091BC039091BD03009709F0C2CE80911F
:104FB000BE039091BF039093BD038093BC0381E037
:104FC0008AAF8AADEA960FB6F894DEBF0FBECDBFAA
:104FD000CF91DF910895DF93CF93CDB7DEB7C15462
:104FE000D0400FB6F894DEBF0FBECDBF9FAF8EAFDF
:104FF000FE01E05CFF4F718360831DAE1CAE8EAD81
:105000009FAD60E00E94C4219BAF8AAFFE01E05CCF
:10501000FF4F8081918160E00E94681A8CAF8AAD59
:105020009BAD009709F07BC08AED91E00E94351797
:1050300080E090E0AAEFB4E48DAB9EABAFABB8AF2D
:105040006DA97EA98FA998AD20E030E04AEF54E425
:105050000E941F02DC01CB0189AB9AABABABBCABAE
:1050600069A97AA98BA99CA920E030E040E85FE318
:105070000E94250488232CF481E090E098AB8FA750
:105080003FC069A97AA98BA99CA920E03FEF4FE70F
:1050900057E40E94C50318164CF56DA97EA98FA987
:1050A00098AD20E030E040E251E40E941F02DC01B4
:1050B000CB01BC01CD010E944900DC01CB0198ABC2
:1050C0008FA70FC088EC90E09EA78DA78DA59EA509
:1050D0000197F1F79EA78DA78FA598A9019798AB87
:1050E0008FA78FA598A9009769F714C069A97AA915
:1050F0008BA99CA90E944900DC01CB0198AB8FA72A
:105100008FA598A99CA78BA78BA59CA50197F1F7C4
:105110009CA78BA781E060E20E946318A8C18CADB8
:10512000882309F4A2C019AE9BC089AD282F30E0B6
:105130008AAD9BAD820F931FFC01359690818CAD9B
:10514000981709F08AC00E94F91E89AD282F30E017
:105150008AAD9BAD820F931FFC013596108287EEBE
:1051600091E00E94351780E090E0AAEFB4E48FA3AD
:1051700098A7A9A7BAA76FA178A589A59AA520E0A5
:1051800030E04AEF54E40E941F02DC01CB018BA304
:105190009CA3ADA3BEA36BA17CA18DA19EA120E089
:1051A00030E040E85FE30E94250488232CF481E08E
:1051B00090E09AA389A33FC06BA17CA18DA19EA181
:1051C00020E03FEF4FE757E40E94C50318164CF567
:1051D0006FA178A589A59AA520E030E040E251E4CE
:1051E0000E941F02DC01CB01BC01CD010E944900DD
:1051F000DC01CB019AA389A30FC088EC90E098A3AF
:105200008F8F8F8D98A10197F1F798A38F8F89A128
:105210009AA101979AA389A389A19AA1009769F7F6
:1052200014C06BA17CA18DA19EA10E944900DC014C
:10523000CB019AA389A389A19AA19E8F8D8F8D8D71
:105240009E8D0197F1F79E8F8D8F81E060E20E9425
:10525000631881E08DAF85E089AF89AD8F5F89AF3D
:1052600089AD853008F461CF7CC081E08DAF89E8DD
:1052700091E00E94351780E090E0AAEFB4E4898FB6
:105280009A8FAB8FBC8F698D7A8D8B8D9C8D20E032
:1052900030E04AEF54E40E941F02DC01CB018D8B09
:1052A0009E8BAF8BB88F6D897E898F89988D20E01A
:1052B00030E040E85FE30E94250488232CF481E07D
:1052C00090E09C8B8B8B3FC06D897E898F89988DF8
:1052D00020E03FEF4FE757E40E94C50318164CF556
:1052E000698D7A8D8B8D9C8D20E030E040E251E419
:1052F0000E941F02DC01CB01BC01CD010E944900CC
:10530000DC01CB019C8B8B8B0FC088EC90E09A8BDF
:10531000898B89899A890197F1F79A8B898B8B8977
:105320009C8901979C8B8B8B8B899C89009769F753
:1053300014C06D897E898F89988D0E944900DC0197
:10534000CB019C8B8B8B8B899C89988B8F878F85CE
:1053500098890197F1F7988B8F8781E060E20E942E
:1053600063188DAD882309F082C08AEF91E00E9416
:10537000351781E062E00E94611783E092E00E94AD
:10538000351780E090E0AAEFB4E48B879C87AD8767
:10539000BE876B857C858D859E8520E030E04AEF59
:1053A00054E40E941F02DC01CB018F839887A987F8
:1053B000BA876F81788589859A8520E030E040E85A
:1053C0005FE30E94250488232CF481E090E09E8313
:1053D0008D833FC06F81788589859A8520E03FEF76
:1053E0004FE757E40E94C50318164CF56B857C8582
:1053F0008D859E8520E030E040E251E40E941F024E
:10540000DC01CB01BC01CD010E944900DC01CB01D4
:105410009E838D830FC088EC90E09C838B838B816F
:105420009C810197F1F79C838B838D819E810197ED
:105430009E838D838D819E81009769F714C06F8153
:10544000788589859A850E944900DC01CB019E837D
:105450008D838D819E819A83898389819A81019729
:10546000F1F79A83898381E060E20E946318CF5B41
:10547000DF4F0FB6F894DEBF0FBECDBFCF91DF91E7
:105480000895DF93CF93CDB7DEB727970FB6F89483
:10549000DEBF0FBECDBF9F838E838AE090E00E9467
:1054A0005B2C9D838C831B821A828A81992787FDBE
:1054B00090959C01220F331F8C819D81FC01E20F8E
:1054C000F31F8E819F812AE030E0B9010E94FD2BFD
:1054D000C096918380838A818F5F8A838E819F812A
:1054E0002AE030E0B9010E94FD2BCB019F838E831F
:1054F0008E819F810097C9F68A81992787FD9095B3
:105500009C01220F331F8C819D81FC01E20FF31F50
:10551000118210821B8203C08B818F5F8B838B81F2
:10552000992787FD90959C01220F331F8C819D81C7
:10553000FC01E20FF31F80819181009769F78B8155
:105540008150898313C08981992787FD90959C019B
:10555000220F331F8C819D81FC01E20FF31F80819C
:1055600091810E94241789818150898389818823B0
:1055700054F78C819D810E94082D27960FB6F894D0
:10558000DEBF0FBECDBFCF91DF910895DF93CF93E4
:10559000CDB7DEB70E940B120E9490180E949C1F8C
:1055A0008DE092E02FE032E0B9010E94E51F84E136
:1055B00092E026E132E0B9010E94E51F8BE192E022
:1055C0002DE132E0B9010E94E51F82E292E024E27F
:1055D00032E0B9010E94E51F89E292E02BE232E05D
:1055E000B9010E94E51F81E392E02CE332E0B901AA
:1055F00045E00E94C31886E492E021E532E0B9015B
:1056000045E00E94C3188FE592E02AE632E0B90136
:1056100045E00E94C31886E792E021E832E0B90134
:1056200045E00E94C31881E060E20E9463188CE8A4
:1056300092E029E932E0B9010E94502B88EA92E019
:1056400026EB32E0B9010E94502B84EC92E025ED6C
:1056500032E0B9010E94502B88EE92E029EF32E04F
:10566000B9010E94502B8BE093E00E94351781E036
:1056700062E00E9461170E94D60B80915A03882332
:1056800091F210925A030E94A1210E94591A0E947D
:105690005F210E94171A80E090E0CF91DF9108957A
:1056A000DF93CF93CDB7DEB762970FB6F894DEBF26
:1056B0000FBECDBF988B8F877A8B698B81E060E2BC
:1056C0000E94631881E061E00E9461178F859889CC
:1056D0000E94351781E062E00E94611789899A89EA
:1056E0000E94351780E090E8A2EAB4E48B879C879B
:1056F000AD87BE876B857C858D859E8520E030E0FB
:105700004AEF54E40E941F02DC01CB018F8398878B
:10571000A987BA876F81788589859A8520E030E0EE
:1057200040E85FE30E94250488232CF481E090E0A8
:105730009E838D833FC06F81788589859A8520E01F
:105740003FEF4FE757E40E94C50318164CF56B85F1
:105750007C858D859E8520E030E040E251E40E940A
:105760001F02DC01CB01BC01CD010E944900DC011C
:10577000CB019E838D830FC088EC90E09C838B834C
:105780008B819C810197F1F79C838B838D819E8116
:1057900001979E838D838D819E81009769F714C048
:1057A0006F81788589859A850E944900DC01CB014B
:1057B0009E838D838D819E819A83898389819A813D
:1057C0000197F1F79A83898381E060E20E94631870
:1057D00062960FB6F894DEBF0FBECDBFCF91DF91BA
:1057E0000895991B79E004C0991F961708F0961B3D
:1057F000881F7A95C9F780950895AA1BBB1B51E1B4
:1058000007C0AA1FBB1FA617B70710F0A61BB70B30
:10581000881F991F5A95A9F780959095BC01CD01D5
:10582000089597FB092E07260AD077FD04D0E5DFFF
:1058300006D000201AF4709561957F4F0895F6F711
:10584000909581959F4F08952F923F924F925F922E
:105850006F927F928F929F92AF92BF92CF92DF9280
:10586000EF92FF920F931F93CF93DF93CDB7DEB7E5
:10587000CA1BDB0B0FB6F894DEBF0FBECDBF099479
:105880002A88398848885F846E847D848C849B84D0
:10589000AA84B984C884DF80EE80FD800C811B81DE
:1058A000AA81B981CE0FD11D0FB6F894DEBF0FBE0D
:1058B000CDBFED010895CF93DF93BC0182309105F8
:1058C00010F462E070E0A091C203B091C303ED0157
:1058D000E0E0F0E040E050E021C088819981861747
:1058E000970769F48A819B81309719F093838283AB
:1058F00004C09093C3038093C203FE0134C06817B1
:10590000790738F44115510519F08417950708F403
:10591000AC01FE018A819B819C01E9012097E9F697
:1059200041155105A9F1CA01861B970B049708F48C
:10593000BA01E0E0F0E02AC08D919C9111978417A4
:105940009507F9F46417750781F412968D919C916F
:105950001397309719F09383828304C09093C30305
:105960008093C203FD0132964FC0CA01861B970B7C
:10597000FD01E80FF91F6193719302978D939C933A
:1059800043C0FD01828193819C01D9011097A1F64A
:105990008091C0039091C103892B41F4809125032C
:1059A000909126039093C1038093C00340912703F5
:1059B000509128034115510541F44DB75EB78091D0
:1059C000230390912403481B590B2091C00330916D
:1059D000C10324173507B0F4CA01821B930B861745
:1059E000970780F0AB014E5F5F4F8417950750F02B
:1059F000420F531F5093C1034093C003F9016193B9
:105A0000719302C0E0E0F0E0CF01DF91CF91089503
:105A1000CF93DF93009709F450C0EC0122971B82CB
:105A20001A82A091C203B091C303109709F140E01C
:105A300050E0AC17BD0708F1BB83AA83FE0121919A
:105A40003191E20FF31FAE17BF0779F48D919C914E
:105A50001197280F391F2E5F3F4F398328831296E5
:105A60008D919C9113979B838A834115510571F405
:105A7000D093C303C093C20320C012968D919C9112
:105A80001397AD01009711F0DC01D3CFFA01D38356
:105A9000C28321913191E20FF31FCE17DF0769F422
:105AA00088819981280F391F2E5F3F4FFA0131837A
:105AB00020838A819B8193838283DF91CF91089594
:045AC000F894FFCF88
:105AC40020004E414D453A0049443A00426F6F6B05
:105AD40020436F6E6669726D204F503A004D656DBC
